:020000041000EA
:1000000000B5324B212058609868022188439860DF
:10001000D860186158612E4B002199600221596106
:100020000121F02299502B49196001219960352056
:1000300000F044F80222904214D00621196600F024
:1000400034F8196E01211966002018661A6600F04E
:100050002CF8196E196E196E052000F02FF8012189
:100060000842F9D1002199601B49196000215960AB
:100070001A491B48016001219960EB211966A021F2
:10008000196600F012F800219960164914480160C1
:100090000121996001BC002800D000471248134993
:1000A000086003C880F30888084703B5996A0420EC
:1000B0000142FBD001200142F8D103BD02B5186610
:1000C0001866FFF7F2FF186E186E02BD00000240BE
:1000D000000000180000070000035F00212200005C
:1000E000F4000018222000A00001001008ED00E03C
:1000F00000000000000000000000000074B24E7A12
:1001000000200420F7010010CB010010CD010010E9
:10011000C9010010C9010010C9010010C901001077
:10012000C9010010C9010010C9010010CF01001061
:10013000C9010010C9010010D1010010D301001045
:10014000C1010010C1010010C1010010C101001067
:10015000C1010010C1010010C1010010C101001057
:10016000C1010010C1010010C1010010C101001047
:10017000C1010010C1010010C1010010C101001037
:10018000C1010010C1010010C1010010C101001027
:10019000C1010010C1010010C1010010C101001017
:1001A000C1010010C1010010C1010010C101001007
:1001B000C1010010C1010010C1010010C1010010F7
:1001C000EFF30580103800BE00BE00BE00BE00BECA
:1001D00000BE00BEF2EB8871B03A0010D03A0010B9
:1001E0003802001090A31AE71E481F49086006C88D
:1001F00081F3088810471D480068002801D019487D
:10020000F3E70DA40ECC002902D000F012F8F9E7B4
:100210001749184A002000E001C19142FCD116495B
:100220008847164988471649884700BEFDE701C937
:1002300001C29A42FBD37047D03A0010C0000020A0
:1002400058100020684A001000000420000004201C
:10025000684A001000100420001004200000000074
:10026000704700000000000008ED00E0000000D032
:10027000581000203C1F0020ED170010D502001080
:10028000E5170010F8B5C04606480749091A8B1053
:10029000C90FC91810B5491003D0044B002B00D06A
:1002A000984710BD58100020581000200000000092
:1002B000054B10B5002B03D00449054800E000BFF2
:1002C000FFF7E2FF10BDC046000000003C1E00200A
:1002D000A4370010F8B501F07DFB0021002002F0EA
:1002E000E7FE192000F0A4F8D02380221B06920418
:1002F0005A6200F087FE0025144C24184D41002D51
:1003000002DA0124124D64420027104E0120002120
:10031000404201F075FD00F075FE22002B00121A1C
:100320008B41002BF2DC01D1002AEFD1D0238022B7
:100330001B069204DA6100F065FE80197941040021
:100340000D1EE3DA0124024D6442DFE790D0030082
:10035000FFFFFF7F7047C0467047C0467047C046EA
:100360007047C046080010B5002B01D1012010BD18
:1003700002F058FB0028F9D0054CC02200212000D3
:1003800001F002FAC0222100002002F055FBEDE747
:10039000741E002000487047E438001010B5054C6A
:1003A0008B222000044901F0F5F98B232000A37073
:1003B00010BDC046E0160020F838001070B50028C7
:1003C00025D0032829D8164B8000C558280003F0F3
:1003D00047F9C0B2041C1F2814D8E4B2002808D082
:1003E0000023104AE95C01331180D9B202328C42F9
:1003F000F8D8C0220134E3B25B0092000A481343EC
:10040000038070BD1F24E4B20028E9D1F1E7074B57
:1004100005484380063BFF3BF2E70020F1E7C0467A
:10042000D038001076140020741400200904000055
:100430000123D0228340120693629361094A83000C
:100440009A1811684022514080320A400649C00083
:100450008C4663441A60054B9C4605236044436008
:100460007047C04604C0014004D001400040014034
:100470008023DB051868000F7047C0460FB400B535
:10048000084883B001F0F2FA049B002B07D005A9BD
:100490001800019101F08CF9034801F0E7FA0120FE
:1004A00001F09EF9C8370010D837001070B5EFF38F
:1004B000108C72B60D4D2B68002BFCD0BFF35F8FF4
:1004C0000724CB08C618C05C01230C40A3401C00C5
:1004D0000440034207D118433070BFF35F8F2C6094
:1004E0008CF3108870BD1000FFF7C8FF2C0100D0FE
:1004F000F8B54746CE46884680B5EFF3108C72B605
:100500001C4D2C68002CFCD0BFF35F8F9A4222D880
:1005100007210126894602E00132934218D34D4655
:1005200037001540AF40D4080119045D2742F3D1CC
:1005300010003C430C70BFF35F8F00220D4B1A601C
:100540008CF3108800280EDBC0BCB946B046F8BD5D
:1005500001204042EFE7BFF35F8F00232B608CF355
:100560001088012040424346002BEDD00898FFF749
:1005700085FFC0462C0100D0044A1078431CDBB232
:10058000172B00D9102313707047C046A00F00200E
:1005900010B5064B064C82B00100009318221F23B1
:1005A0002000FFF7A5FF02B010BDC046DC370010E9
:1005B0006C1700200021044B044ABFF35F8F02C375
:1005C0009342FAD17047C046000100D0800100D0AC
:1005D000054B064A1360064A136053609360D3606C
:1005E00013615361936170478080808000E400E074
:1005F00004E400E01F2318401E3B8340002905D07F
:10060000C021044A490053501360704780220149B9
:100610008B50FAE700E100E070B50D00EFF31086B3
:1006200072B60F4A1368002BFCD0BFF35F8F0D4BDF
:1006300010309B6884001B590B4A934203D09D42A3
:1006400001D000F07FFE074B9B681D51BFF35F8F09
:10065000BFF35F8F0022024B1A6086F3108870BDD3
:10066000240100D000ED00E0C1010010F0B55746B4
:100670004E46DE464546E0B585B0060000911700BF
:10068000EFF3108B72B66A4A1368002BFCD0BFF3ED
:100690005F8F0025674B5D579A46002D00DAA9E071
:1006A0006B00654C01935B199B009846A146C144C1
:1006B0004B4652469B7910361370604BB6009B68D0
:1006C00099590B1B2F2B33D95D4B994200D0ACE0CD
:1006D000019B42469C465B4B6544AD0063535A4BBD
:1006E0000232A218043B9B1A1B05584A5B0D651980
:1006F00013436B80564B0121AB80FF23AB71009BF2
:10070000EF71AB604B460B4319004C4B9B68995102
:10071000BFF35F8FBFF35F8F0022454B1A608BF3EF
:10072000108805B0F0BCBB46B246A946A046F0BD55
:1007300001200A008243D3798C46BB4231D845461A
:10074000130044491B1B5B415943090D3D4B635347
:100750003D4B02356519043B5B1B1B053B4D5B0D97
:100760002B43AA464D466B800425AC465546E044D3
:10077000131F44441B1B1B055B0D1D434B46997106
:1007800000999D8099604946DF71334B01431360A6
:10079000BBE75800C01880002018C179B9422FD992
:1007A00002000623D356002BF3DA02932B4B61464B
:1007B0000393131D9A4604235B429C46E144504632
:1007C0004B461B1A1B055B0D9C46204B95719846AA
:1007D0006346404603439380019B5A199200039B52
:1007E000A418A380029B1C4AA371009B2260E7719E
:1007F000A3608AE700F0A6FD002553465D574FE74A
:10080000908802934005131D9A46031561469C4645
:100810004046D444634604302018181AE0230005EB
:10082000400D1B0218430390C5E700F08BFD4FE716
:10083000240100D0381F0020A40F002000ED00E0AC
:10084000C101001000A1FFFFD40F002000E0FFFF56
:1008500001BDFFFFAAAA00000148804701BD0000BA
:1008600070B501240443EFF30581EFF3108C72B6E9
:10087000214A1368002BFCD0BFF35F8F1F4B05008C
:100880001F4AED1A6D416A43120D1E4D8900AE6874
:1008900052B27658A6421CD00621595691421CD01D
:1008A00012215956914222D01E215956914220D0F0
:1008B0002A2159560324914210D0134B19781A70EB
:1008C0008171BFF35F8F00220B4B1A608CF310888D
:1008D00070BDAB680D4C5C50EFE700246100091956
:1008E00089005B18FF21997109499980E5E7012486
:1008F000F4E70224F2E7C046240100D0A40F002050
:10090000AAAA000000ED00E0381F0020C10100107D
:1009100001BDFFFF024B9C466144890001607047A6
:100920004000003470B5114C114DAC420FD2FF267F
:100930002368002B0CD0FFF71FFE01002000FFF7FB
:10094000E9FFA680BFF35F8F0834AC42F0D370BDDF
:10095000FFF712FE01002000FFF7DCFF2671BFF356
:100960005F8F0834AC42E3D3F1E7C046501000205B
:100970005810002010B50400FFF7FEFD0100200014
:10098000FFF7C8FFFF232371BFF35F8F10BDC04681
:1009900010B504000120FFF7FBFD034BC3189B00BB
:1009A0002360BFF35F8F10BD400000340A4B19680D
:1009B000EFF3108072B60A68002AFCD0BFF35F8F95
:1009C0001B68BFF35F8F00221A6080F3108840BF5E
:1009D000002000217047C046701E0020F0B5DE46A2
:1009E00057464E464546E0B587B0EFF305830322F0
:1009F00001251A40954091008846A946B14B0392C3
:100A00005C58B14B1D60B14B04934B46B0484363F7
:100A10000823E55E002D37DAA3881BB2002B00DB2C
:100A2000ADE0A379002B00D0EEE00823E15E0029C1
:100A300020DB4B0062695B18DB00D3189E68DD6821
:100A4000731C00D10DE1A24801004144826A0B6988
:100A5000B71A9B1A9F4215D30123026A0398834059
:100A60001A420FD09A4800F0C5FA8D4202DCCCD170
:100A70008642CAD940BF07B0F0BCBB46B246A946C1
:100A8000A046F0BD0E61EDE762696B0092465B190E
:100A9000DB009A4453469E68DF6800F0ABFA8F4251
:100AA000BADC00D1FFE0002F00DAE4E05246534602
:100AB00052691B699346049A934200D1D5E052468D
:100AC0000821605E52880004594610439847009000
:100AD00001910099019A0B001000134300D1CAE064
:100AE00013000A00B61A9F41002806DB784800F080
:100AF00081FA009E019F36184F4153469E60DF6089
:100B000000229A5E002A00DA86E75300991860698D
:100B1000C900411802938B68C9689B46B94200DD41
:100B20007AE702D1B34200D976E708239C46A44471
:100B3000059565462281A446029B2C0006E05300E1
:100B40009918C90041188D68C968AB469B18DB002D
:100B5000C318B94206DC00D1AFE01C000023E25EFE
:100B6000002AECDA230064469C4653461A8063460A
:100B7000059D1D80A3881BB2002B00DA51E7226976
:100B8000EFF3108172B61368002BFCD0BFF35F8FB8
:100B90000123A7885B42A3803FB22369BFF35F8F25
:100BA00000221A6081F31088002F00DA39E7230051
:100BB000083322009A4666697B00DB19DB00F318D4
:100BC000996850468C460824115FDD68002910DBC7
:100BD000029306E0AB4240D00023E15E20000029F2
:100BE00006DB4C006418E4003419E368AB42F1DD25
:100BF000029B078000201F5E1980002FDCDA1400A2
:100C0000A379002B00D110E70023A371260008234D
:100C1000E15E08364B1C00D12CE7B446656903E061
:100C200084464B1C00D100E74B005B18DB00E81842
:100C30000A00E95E43881BB2002BF1DA01267642F6
:100C4000F7178660C7600826A35F9342E9D0634622
:100C50001980238903802281E3E7A3686345BBD918
:100C6000C6E76B1C00D0EEE6FCE65B4658461B6907
:100C7000984700281BD153461B8822692381EFF334
:100C8000108372B611680029FCD0BFF35F8F514604
:100C900062880A8022696580BFF35F8F002111603E
:100CA00083F31088B8E6864200D8FCE6B4E65B46DB
:100CB0001A685B68009201930BE7B34500D84CE7D4
:100CC00050E7C046541E00203C700540DD0900106E
:100CD0000040054070B52E4C2569002D04D00A2136
:100CE0002C48FFF717FE70BD2B4E0321300000F09B
:100CF00077F9E660FFF740FC284B03229C46D0239F
:100D000022701B061B6801216370254B6044A360A1
:100D10000F23800020610220638063694942A18023
:100D200019800231198647311D83585218315A52A1
:100D300075325C39995218320131995218320131A9
:100D40009952183201319952083518329D520231A8
:100D50001832995218320131995218320131995290
:100D60001832013199521832013199521832013139
:100D700099520C4B0C49DC6001303562FFF74CFC9A
:100D800001210320FFF736FC084B1D60A7E7C04692
:100D9000EC0F0020701E0020004005404000003491
:100DA000FFFF1000541E0020DD09001038600540D0
:100DB00070B501000469EFF3108C72B6206800284A
:100DC000FCD0BFF35F8F02200D5E4C6968004019B4
:100DD000C00024180869002D36DB26884E80BFF33A
:100DE0005F8F002606608CF31088E36063880498A8
:100DF000013320615B0405985B0CA26060611A1CE2
:100E0000002B1FD093B22804628018430A69EFF3C5
:100E1000108C72B61368002BFCD0BFF35F8F8B88E9
:100E200023808D800B69BFF35F8F00221A608CF3E3
:100E300010880B7801329A40CB6808498C4663448D
:100E40001A6070BD0122DDE7BFF35F8F00230360EE
:100E50008CF3108801204042F3E7C0463C2000009C
:100E600010B543890A1493421ADD53009B18426956
:100E7000DB00D3180469EFF3108C72B62268002AE5
:100E8000FCD0BFF35F8F5A88090494B2090C8A42E0
:100E900008D00369BFF35F8F00221A608CF31088BB
:100EA000002010BD8022120214435C8001230269DD
:100EB0008371BFF35F8F002111608CF310880449A8
:100EC00002788C469340C268012062441360E8E7D0
:100ED0003C200000F0B557464E46DE464546E0B59C
:100EE00006000F0085B0EFF3058399468B46002B73
:100EF00012D0384900204B6ABB4206D38A6ADB1BFA
:100F0000591E8B41B2424041184305B0F0BCBB466C
:100F1000B246A946A046F0BD2F4B9A46DB689846DC
:100F200053461B784046039300F064F84246039B07
:100F3000040004339B009B580D001B1A390030003D
:100F4000001BA941894510DC0DD020BF214A00209B
:100F5000536A5B45D9D3926ADB1B591E8B41B2425F
:100F600040411843D1E78342EFD900F04BF83200FB
:100F70003B00121A8B41002B1ADB00230193174B05
:100F80003200009350463B00FFF712FF011E0FDDB9
:100F9000104B5A6A5A451BD39B6AB34216D350462C
:100FA000FFF75EFF0B4A0020536A5B45ADD3D2E7E3
:100FB000084A0020536A5B45A7D30020926ADB1BD6
:100FC000B24240415A1E934118439EE75A45E6D12A
:100FD00020BFE4E700400540EC0F0020AD09001001
:100FE00010B5024A0248FFF761FA10BDF837001049
:100FF000701700200300416A0A00986A596A8A4201
:10100000FAD17047034B596A0A00986A596A9142AB
:10101000FAD1704700400540F8B5DE464E465746C7
:101020004546E0B58B4605000A991800160000F009
:10103000B3FA0A9B6C001F02324B64199C46A40051
:101040006444636881469F4200D967602B1FDBB20E
:101050009846012B30D9C02380229B01E31812014E
:101060001A60294BAD0059599A4600291BD17301CA
:10107000E026226853401E40802342465B01E3186D
:101080001E60012A30D9802380229B01E3181201BF
:101090001A6053464A4667605A51F0BCBB46B24696
:1010A000A946A046F8BD586900F076FA0130430021
:1010B0001B18033BFDD2DAE75B46012BCBD1C023E3
:1010C00003229B01E3181A60023AA3681A42FCD07B
:1010D0007301E0262268AD0053401E4080230A4A77
:1010E0005B019246E3181E605A4621685140032274
:1010F0000A401A6001225B469A40A3681A42FCD05B
:10110000C1E7C0460080004074170020F0B5464695
:101110004F46D646C0B51F00344B44009C462418A9
:10112000A4006444636888461600FF2B02D880231D
:101130005B006360031FDBB29A46012B30D9C023EA
:1011400080229B01E31812011A60294B850059592E
:10115000994600291BD17301E026226853401E40A6
:10116000802352465B01E3181E60012A30D9802398
:1011700080229B01E31812011A6080235B006360E8
:101180004B465F51E0BCBA46B146A846F0BD58692F
:1011900000F002FA013043001B18033BFDD2DAE7EE
:1011A0004346012BCBD1C02303229B01E3181A60D5
:1011B000023AA3681A42FCD07301E0262268850037
:1011C00053401E4080230A4A5B019146E3181E608B
:1011D00042462168514003220A401A6001234246D8
:1011E0009340A2681342FCD0C1E7C0460080004093
:1011F00074170020014B8000C058704774170020FE
:10120000F8B5040021481E0017000D0000F0C4F9D5
:101210000100380000F0C0F9069B36041B031E4392
:101220002368002B20DB1A4B1A49E3185A1E9341FE
:101230008022920194465B421B0B174A1B036344B6
:101240001360164A13601F000A689743FBD1144BC2
:101250002560E2182123A06013602368002BFCDACC
:101260000823E6601360F8BD3F2322681340AB42B9
:10127000D9D1A3681B051B0D8342D4D1EE22E368AC
:10128000D2021340B342CED1EDE7C046001BB700F7
:101290000040FDBF08C0004000E0004000F00040FA
:1012A000043000008023024A9B000B43D362704746
:1012B00000800540002310B50100988A1B8B9847D9
:1012C00010BDC046162310B50100188802331B88D4
:1012D000984710BDF8B54746CE4680B50F1E18D0CA
:1012E00014239946043304000025012698464B46F2
:1012F0001888434621681B88984701C4431E9841BB
:1013000001350640AF42F2D13000C0BCB946B0460C
:10131000F8BD0126F8E7C046AA23064A1B01136060
:101320008D235B00D3600449044B19605368002B84
:10133000FCDA70470040024000B0FA000060024052
:101340007047C04610B50148FFF798F81C380010E8
:1013500070B5074D074EB54209D20024013E761BF9
:10136000B60808CD984723000134B342F9D170BDC7
:10137000603700109C370010054B064A06491A607A
:10138000064A074B1A6010000B689843FBD1704760
:1013900000E00040BFCDFBFE08C00040FE7F3C00E7
:1013A00000F00040044BDB6C002B03D18022034B88
:1013B000D2021A607047C046000011504C201150F4
:1013C000044A054B1A60054A1368DB018033FBD1E0
:1013D0007047C046FFFFFF0100F0004008C000401A
:1013E0004022034B9A675A671A67DA667047C0460D
:1013F00000F0014010B5FFF7DDF810BDF8B5274942
:10140000274C284D641AA6103200302E00D9302205
:101410002800920000F0BEF9BC2C3BD830202F23CE
:101420002C196407204A801BE40F9B1B052B16D93F
:101430003700002C02D0B300771CEA50001B331990
:101440009B004108EB18C900C9181A605A6008339C
:101450009942FAD1012303421CD09843C619B30024
:10146000EA50731C2F2E15D09B00EA50B31C2E2E71
:1014700010D09B00EA50F31C2D2E0BD09B00EA509D
:10148000331D2C2E06D09B00EA50731D2B2E01D04D
:101490009B00EA50054B9D60F8BDC046000100105E
:1014A000C001001000000020C101001000ED00E0AC
:1014B000002310B5294C82B0A367FFF72DFF01224E
:1014C000274B1A60636C012BFCD10322254B1A6059
:1014D000224A936B012BFCD1013300930121224A54
:1014E00022480433FFF78CFE052301210093204A94
:1014F0002048FFF785FE0022022104201E4BFFF743
:1015000005FE0022012105201C4BFFF7FFFD0022F4
:10151000002107201A4BFFF7F9FD002200210820C7
:10152000174BFFF7F3FD8023DB000093002200211F
:101530000920134BFFF770FD0022104B00210620FD
:10154000FFF7E4FD0420FFF755FE0E4900F024F8F4
:1015500001000020FFF7A6FE02B010BD0080004091
:101560003CB0004030B00040002F6859008002407D
:10157000008C864700C00240001BB700405973072B
:10158000006CDC0240420F0001480421014B184767
:1015900010100020D5120010114A936F9B0813D22F
:1015A00010665166002905D0FFE7FFE7FFE7516F9E
:1015B000106F704704B5002801D00020C04302F02E
:1015C0009FF8002104BDC046F0B5146E556E576FEC
:1015D000166FFFF7E5FF1466556657671667F0BD8F
:1015E000000000D0132370B51D78012D19D014DD33
:1015F0001F48FFF767FE06001E48FFF763FE1E4CFC
:1016000080223100200000F0C5F8022D2DD01B48AB
:10161000FFF750FE1A4B186070BD1A4B164CA364AE
:10162000F5E7184B144C23606360A360E36023610B
:101630006361A361E36123626362A362E362236384
:101640006363A363E36323646364A364E364236564
:101650006365A365E36523666366A366E366236744
:101660006367A367E367A364D1E7064BA364CEE790
:101670005344000053460000D81100204C330000B2
:101680006C1E00208916001007B5604601880A0A02
:101690000230DF2AFAD1C9B2820804D30288408816
:1016A0000004104300E00068014A5050039007BD59
:1016B000D811002051434343C9188C46110C83B202
:1016C0004B4310B4040C614392B280B25043624366
:1016D0001C041B0C001910BC59411304120CC01837
:1016E0005141614470470000132310B512481C7823
:1016F000FFF7E8FD0100012C0AD003DD80220F482E
:1017000000F048F80E48FFF7D5FD0E4B186010BDED
:101710000A4C5422200000F03DF80B4B6365A36592
:10172000E36523666366A366E36623676367A3676F
:10173000E3672362E361E5E753460000D812002027
:101740004C3300006C1E00204D17001007B560469A
:1017500001880A0A0230DF2AFAD1C9B2820804D30A
:10176000028840880004104300E00068014A50509D
:10177000039007BDD812002001480421014B1847EF
:1017800020100020D5120010014B1B6818470000E4
:1017900020100020014B5B6818470000201000203B
:1017A00010B5002800D110BD00F016F9FBE7C046C7
:1017B00010B5094A0300146884B0002C08D0012237
:1017C00000910648524203A9A047012004B010BD71
:1017D00000F04CF90020F9E7741D0020A11700105B
:1017E00000BEFDE710B5FFF7FBFFC04670B5FFF781
:1017F000AFFD074D074EB54209D20024013E761BCE
:10180000B60808CD984723000134B342F9D170BD22
:101810009C370010A4370010030010B50800110019
:101820001B68984710BDC046F0B5C64600B5437D5D
:1018300007000C001600002B46D0002A17DD0B789D
:101840000A2B24D000239846012E13D0012529000D
:10185000635C01350A2B26D0B542F8D1464509DC38
:10186000A419013C23780D3B5A4253413B7580BC7F
:10187000B846F0BD4346E018A419F11A013C3B6894
:10188000984723780D3B5A4253413B75EFE7037D60
:10189000002BD7D102210F483B689847012EDFD09B
:1018A00001239846D2E7631E5B5C0D2BD4D088459C
:1018B00004DA4346C91AE0183B68984702210548F4
:1018C0003B68A8469847C7E703681100200098477F
:1018D000CDE7C046D8390010F0B54546DE464E4645
:1018E0005746E0B583B091461C0080460D00FFF7D7
:1018F00089FB0023304A12184B41002B02DA0122E7
:101900002E4B52422E4908008A4601F009FF07007B
:101910006B1C03D1404601F0A3FE0500002C27D02C
:10192000284E294B1C68002C18D04B46002B21D187
:10193000264B994602E02469002C0FD02368002B27
:10194000F9D04B461B68002B01D09C42F3D12000FC
:101950002A004146B0472469002CEFD1002F26D140
:10196000280003B0F0BCBB46B246A946A046F0BD75
:10197000174ED6E7154B99460A239B4602E0246989
:10198000002CEBD02368002BF9D04B461B68002BB2
:1019900001D0A342F3D12A0041462000B0476B4654
:1019A0005A462000DA71D91D0122B047E7E75046B8
:1019B00001F08EFED4E7C04640420F00FFFFFF7FDC
:1019C0005010002029180010E01700207019002086
:1019D0001918001000207047F0B5CE46474680B574
:1019E00083B06B460600DD1D2870FFF70BFB00235C
:1019F000194A12184B41002B02DA0122174B5242AE
:101A000017490800884601F08BFE164B81461C687A
:101A1000002C14D0144F02E02469002C0FD023684E
:101A2000002BF9D03B68002B01D09C42F4D1200060
:101A300001222900FFF7F8FE2469002CEFD14B4664
:101A4000002B05D1300003B0C0BCB946B046F0BD94
:101A5000404601F03DFEF5E740420F00FFFFFF7FEB
:101A600050100020E01700207019002070B504000D
:101A700001F0F6FD01230100050001222000FFF71F
:101A80002BFF084B1C68002C06D06368002B05D088
:101A900098472469002CF8D1280070BD2469002CD7
:101AA000F3D1F9E7E0170020F8B500F0E1F80C23D6
:101AB000194DFF22AB6705201849FEF7D7FD184CDA
:101AC000402200212000FFF75FFE4027002301266F
:101AD0002121144A66702783A260136063545F312A
:101AE000618445396354104A10496360E260278776
:101AF000A1620B606362E26201F02AFE80239B0513
:101B00002E64EB6490230A4A0120EA508022094B9C
:101B10005202DA64F8BDC0460000115015030020DF
:101B200074190020840010500001105080001050E3
:101B300010D001000020115010B501210520FEF742
:101B400059FD10BD10B500220021024800F0B0F888
:101B500010BDC04694190020044B1970002904D010
:101B600080219023024A8902D1507047351F0020FE
:101B7000002011500B785B0602D14B78052B00D06A
:101B800070478A78014B1A60FAE7C046000011508E
:101B90007F2310B58A780E4813405B00D2099B184A
:101BA0005B01C318D868002810D04A790C7912025A
:101BB00022431A830749DA7E414092060A43802174
:101BC00001205B6809060A431A6010BD0020FCE78B
:101BD000741900200000105010B501F0B9FD10BDBF
:101BE00010B57F200C0020404000E40911000019CE
:101BF0001A00034B4001C01800F05AF8012010BD34
:101C0000741900207F23180000B5084083B00B42F0
:101C100004D14B424B41084A013393668022C909E3
:101C20004000064B401840010021C018120101F08D
:101C300087FD03B000BDC04600201150741900207C
:101C40007F22130010B50B400A4200D110BDC90914
:101C50005B005B1804485B01C018002300220349A5
:101C6000C37001F06DFDF1E774190020FFF7FFFF6D
:101C700080220A4B520410B51A60094B09491A60B8
:101C800010000B689843FBD18022002152010648C6
:101C9000FFF77AFD0922054B5A6710BD00E00040AE
:101CA00000F0004008C0004000001050000011503B
:101CB000002310B5C3820133828283760161040060
:101CC00001F016FD002804D080219023074A8902E4
:101CD000D150200001F004FD002802D00123237719
:101CE00010BD200001F024FDFAE7C046002011508D
:101CF000002070477047C0467047C04600207047BC
:101D00000020704700207047014B98787047C0460C
:101D1000C0140020F0B5D6464F464646C0B52D4B00
:101D200007009A461B780E00FF2B4DD100293ED0AC
:101D3000002154222848FFF727FD0022274C284B7A
:101D400020001A70FEF716FE264B1C60264C200061
:101D5000143CFEF71DFE200001F03CFC234B244DFB
:101D60001C60244B002B04D0280000E000BF224B55
:101D70001860224A002491461F4A2B7890460EE0B4
:101D800043461B6862019B18002B10D05B68002B38
:101D90000DD0984701342B78E4B2A34209D3A34273
:101DA000EED8E31A5B014B445B68002BF1D10020B5
:101DB0000BE05346310038001F70FFF775FE002816
:101DC000F5D03800FFF7B8FE0120E0BCBA46B146B6
:101DD000A846F0BD4C100020C0140020B81400200C
:101DE000361F002014150020441000201815002074
:101DF000341F002000000000D8130020843A001097
:101E0000F0B5DE4657464E464546E0B5CA4B8FB064
:101E100003931B78FF2B00D146E1C84BC84E9B466D
:101E20005F46C84B0BAC0293C74B019335686A6998
:101E3000EFF3108172B61368002BFCD0BFF35F8FF5
:101E4000A9612800210001F0FDF96A69AB69BFF3BF
:101E50005F8F0021116083F31088002800D123E1F7
:101E60006378082BE2D89B00FB589F466368002BE1
:101E7000DCD0A0689847D9E77F222179B14D0A408C
:101E80005300EB189846C80980444046012330307F
:101E900005799D430571057903339D430571002A3A
:101EA00000D108E14346A94A1B7D1278934200D332
:101EB000F8E0A74A5B011568ED18002D00D1F3E0AA
:101EC000A36862792078AD69A847AFE7A14A137883
:101ED000002B00D1E8E01378013BDBB213701378DC
:101EE000002BA3D10122974D01212B78042013430D
:101EF0002B703423EA5C8A43EA54EA5C8243EA5456
:101F00000133EA5C8A43EA54EA5C8243EA54237868
:101F10000020984600F038FC602223791A40602A9D
:101F200000D1F3E0402A00D1F9E0DB06DB0E012B03
:101F300000D117E1022B00D1CCE0002B00D0E5E06E
:101F4000202A00D10FE2002A00D0DFE06379092BBC
:101F500000D9DBE0804A9B00D3589F46794D2B780F
:101F6000DB0700D462E7FEF7FBF95FE7029BDB7853
:101F7000DB0700D45AE76068FFF7BEFE56E7714DF5
:101F80002B78DB0700D451E728780007C00FFEF755
:101F9000E5F94BE723786C4A984693466B4B6C4ABD
:101FA0009946310092463A0046464F4600259146F2
:101FB00088461B780EE053461B686A019B18002B6D
:101FC00000D17EE0DB683000984701353B78EDB208
:101FD000AB420CD39D42EED3EB1A5B015B44DB6852
:101FE0003000984701353B78EDB2AB42F2D2554D07
:101FF000542200212800FFF7C7FB1022FF21281DD3
:10200000FFF7C2FB28002022FF21143046464F462E
:10201000FFF7BAFB00F0AEFB2379AB7006E723783D
:102020004B4A9846494B924699463200BB46464633
:1020300000254F4690461B780DE053461B686A0109
:102040009B18002B41D0DB683000984701353B7866
:10205000EDB2AB420ED3AB42EFD8019AEB1A9446E5
:102060005B016344DB683000984701353B78EDB293
:10207000AB42F0D2029D542200212800FFF784FBDE
:102080001022FF213548FFF77FFB28002022FF2187
:10209000143046465F46FFF777FB00F06BFBFEF718
:1020A0005BF9C3E6934213D00FB0F0BCBB46B24617
:1020B000A946A046F0BDA3686279207800F078FBBD
:1020C000B4E646464F461F4DA4E746465F46E4E762
:1020D0001D4DF5E67023217A0B4217D1C8098346BE
:1020E0000F330B405B0099461848EB185B441B7D8F
:1020F0000078834261D216485B01006882469A44A8
:10210000002A00D14EE15346002B5ED120780021F9
:10211000FFF778FD80212078FFF774FD86E61048F0
:1021200000F032FB012140460CAAFFF7E1FD002838
:1021300000D07BE6EAE7C0464C100020DC390010F6
:1021400018150020C0140020843A0010341F00200D
:10215000D8130020361F0020003A0010C4140020BD
:10216000F11C0010237A0F2BD0D8D54AEB181B791D
:102170001278934234D3C9D1D24D686900F004FB80
:10218000012140466B690CAA9847002800D04DE613
:102190006022150023791D401A42B7D163790A3BAA
:1021A000012BB3D800F0F0FA63790A2B00D17DE15E
:1021B00040460CA900F074FA38E6834200D0ECE007
:1021C000C04B9A46002A00D1ECE05346586900F013
:1021D000DBFA5346012140465B690CAA9847A6E703
:1021E000B94A5B011568ED18002DC6D18EE7A379B9
:1021F0009A466B789A45DBD06B78002B00D028E1AB
:1022000053466B70002B00D120E150460138C0B21C
:10221000FEF7C4F8002800D171E14378022B00D00A
:102220006DE10122C179A9468B11491113400A4081
:10223000302112015B0113432A788A4313432B7028
:1022400009239B4683445D46B346C37882781B02CC
:102250001343C31806939A4B04970593994B08931D
:10226000994B9A46994B0993069BAB4200D849E19A
:102270006B7801220B2B03D12B78EA78ED186B7861
:10228000042B00D038E1069B00265B1B9BB2079312
:10229000059B17001B7818E053461B6872019B18BA
:1022A000002B00D128E1290040461B69079A984776
:1022B000082803D9079B834200D30BE1059B013615
:1022C0001B78F6B2B34200D216E1B342E4D8089AC2
:1022D000F31A94465B016344E5E76B780AAA02327D
:1022E0001370404601230CA900F0F0F99EE5E38845
:1022F0001A0AD8B20F2A00D908E775499300CB58BB
:102300009F460CA800F046FA4046A179FFF71AFC58
:1023100002222B7813432B7088E5E388012B00D031
:10232000F4E608222B78404693430CA92B7000F06A
:10233000B7F97BE5022029780AAB9A1C8B0689083D
:10234000DB0F01400B431380404602230CA900F031
:10235000BDF96BE5E388012B00D0D7E608222B7886
:1023600013432B7024E7237A0F2B00D9CEE6544A6F
:10237000EB181B791278934228D2534A5B011568F7
:10238000ED18002D00D1C1E6686900F0FDF90121CA
:1023900040466B690CAA9847C9E6002A00D0B5E60A
:1023A00000239A4662790220130004928343012B92
:1023B00011D0002A00D0A9E62B004B445B443033F7
:1023C0001B790AAA9B07DB0F0232BCE7934200D0BD
:1023D0009CE63C4DD8E7E388002B12D1039B18788C
:1023E000049B012B23D0FFF70DFC4B460221EB1879
:1023F0005B4430331A790A4301211A711A790A436E
:102400001A715346002B00D110E5586900F0BCF951
:10241000534601215B690CAA40469847002000F012
:10242000B3F93523EB5CDB0700D5FFE4C0E6FFF72B
:1024300007FC4B460221EB185B4430331A798A4380
:102440001A711A7904998A431A71DAE7FDF784FF41
:10245000AEE600214046FFF77FFB4046FFF7BCFB9E
:1024600000229346174AAB780592174A04930692C6
:102470002A00134B5D46994693461B780EE0069B57
:102480006A011B689B18002B55D0DB6840469847B3
:102490004B4601351B78EDB2AB4238D39D42EED3AB
:1024A000059AEB1A94465B016344EEE70AAB9A1C6B
:1024B000404601230CA9157000F008F9B6E4C046A7
:1024C000341F0020843A0010D8130020D4140020B8
:1024D000283A00103A000700002A3CD0AB789A183E
:1024E000D2B204E00133DBB20E71934233D04946DD
:1024F000C9180879FF28F5D05E464D46049F002391
:102500006B7003E65E46049FFDF724FF50E65D46D0
:10251000542200212800FFF737F91022FF21281D3F
:10252000FFF732F928002022FF211430FFF72CF9A1
:10253000049BAB7064E65D46FAE7FFF7DFFB021E23
:1025400000D1E3E5D37891781B020B4340460CA9F8
:1025500000F0BCF8EBE5330029003A00099800F0E0
:102560000BFE059BED191B78B34200D37CE6C3E755
:10257000FFF7C6FB021E00D1C8E5404613780CA940
:1025800000F0A4F8D3E52189FDF718FF021EF4D16D
:10259000BCE5022A0FD0FFF7B5FB021ED2D1B5E58C
:1025A000FDF7F8FE021E00D1B0E5122340460CA94B
:1025B00000F08CF8BBE5FDF7F1FE021EC2D1A5E5E7
:1025C00070B57F240F480C4064000419CD096419CC
:1025D00030342079C00701D5002070BD012625794F
:1025E0000948354300782571FFF7FAFA0028F4D13D
:1025F0000122237993432371237903329343237177
:10260000EAE7C046C01400204C10002010B50B4B68
:102610000C001878FFF714FB7F230221084A23409F
:102620005B00E409D3181B1930331A798A431A71F5
:102630001A7901398A431A7110BDC0464C10002026
:10264000C0140020F8B570238E780C00334201D0FE
:102650000020F8BD104D114B2000A9781F7800F024
:102660004DFD0028F4D07F23022133405B00F609A2
:10267000EB189B1930331A7938008A431A711A798A
:1026800001398A431A711A7903318A4321001A7178
:10269000FFF77EFADDE7C046C01400204C10002092
:1026A00070B5094C0600082220000D00FFF772F8F3
:1026B00000238021E360A3602B783000994300223F
:1026C0000023FFF77DFF70BD60140020F8B5CE46F3
:1026D00047469046254E80B58146082230000D00C1
:1026E0001F00FFF757F84346B3600023F381EC79EE
:1026F000AB7924021C43231CBC4200D93B1C9FB273
:10270000B381002C0DD0002F17D04246002A2BD0C9
:10271000402F1BD89FB233787F2B1CD80021144A3E
:102720000FE080212B780022994348460023FFF7D1
:1027300047FFC0BCB946B046F8BD7F2300223178C0
:1027400099433B004846FFF73BFFF2E740239FB227
:1027500033787F2BE2D9064C3A0041462000FFF740
:1027600019F880212200ECE70020E2E76014002045
:102770002014002010B5142200210248FFF704F8AD
:1027800010BDC04660140020014B18617047C04660
:102790006014002010B5054C010008222000FEF74F
:1027A000F9FF0023A360E36010BDC0466014002061
:1027B00070B5384C1D0023780600DA09C9098A4231
:1027C00010D00020002D00D070BD21003000FFF798
:1027D000D1F92369002B03D0220003213000984750
:1027E0000120F1E77F2B06D8A068002834D02A000A
:1027F0002949FEF7CFFFE289A1685219E38892B216
:102800004919E281A160934214D03F2D12D9A389C6
:10281000981A051C80B240282AD82078ADB27F28AB
:1028200028D800219A4232D01B4A2B003000FFF7F3
:10283000C7FEC9E72369002B05D022000221300022
:10284000984700280AD0802123780022994330003D
:102850000023FFF7B5FEB7E70020B5E70021300001
:10286000FFF7D0F930008021FFF7CCF90120ABE76A
:102870004025D2E79A4207D0074C2A002000FEF7F5
:1028800089FF80212200D0E780210022CDE70022AD
:10289000CBE7C046601400202014002001207047C0
:1028A000F0B5D6464F464646C0B5544C0500636861
:1028B00084B0002B24D0E1891A78083959189B1864
:1028C000DA799879120202439B18CA1A002A17DD96
:1028D0000026207B04E01A789B18CA1A002A0FDD14
:1028E0005A78042AF7D1DA78002AF4D19A78824209
:1028F0000DD01A7801369B18F6B2CA1A002AEFDCFE
:10290000002004B0E0BCBA46B146A846F0BDA36AB8
:102910009B5D002BF4D000212800227AFDF722FDD8
:102920000028EDD020002C3000F076FCE38A62898C
:10293000002B39D0218E8F00BB4235DCA78ABC46E4
:102940000027604518D3490889462D49278B8846BA
:102950000968BA4603914946FF1ABFB2C91B8842AB
:1029600028DA0399002940D10A234146171C0B603D
:10297000624500D96746BFB220003A00216C2C3076
:1029800000F0AEFC3B002800226C217AFFF718FE15
:102990000028B5D0A26A237A925D390000922800FF
:1029A0000022FFF77BFFACE7071C9042E3D9171C1E
:1029B000BFB2E1E73900494488420EDD039900299E
:1029C00013D1634502D00A2341460B605346171CBE
:1029D0005245D0D91F1CBFB2CEE7171C9A4200D96E
:1029E0001F1C0399BFB20029C6D040460399171C8B
:1029F000013901609A42EDD8BFB2BDE7DC13002077
:102A00009C1700200120704701207047002070476C
:102A1000002070470020704700207047002070475A
:102A200000207047002802D1024B587B70470020DD
:102A3000FCE7C046DC13002010B5002807D105488C
:102A40004368002B03D02C3000F010FD00E0002084
:102A500010BDC046DC13002030B5114C83B04422B9
:102A600000212000FEF790FE0E4B4022236224231B
:102A7000E2540D4B2000A3620123803200930B49E6
:102A800052002C3000F092FB094D2800FDF772FF38
:102A90000023E363074BA563236403B030BDC04646
:102AA000DC130020A0170020DC150020F017002008
:102AB000E8170020781D00200020704710B5054C55
:102AC000202200212000FEF75FFE20002C3000F0C5
:102AD00081FD10BDDC13002010B54B79012B02D114
:102AE0008B79012B01D0002010BDCA79202AFAD1A0
:102AF0000A79002AF7D1CA78002AF4D1044A546826
:102B0000002CF0D1516008211070D1815373EAE795
:102B1000DC130020F0B54546DE4657464E46E0B58C
:102B20001400050083B0012939D0022907D0012003
:102B300003B0F0BCBB46B246A946A046F0BD137830
:102B40001F22190091432029F1D1DB06DB0E012B56
:102B500000D1BCE0022B30D1994F20797B68F989F4
:102B6000002B2AD01A7859189B18DA799E7912020C
:102B700032439B18CA1A002A05DC1EE01A789B18FB
:102B8000CA1A002A19DD5A78052AF7D19A788242A2
:102B9000F4D1210028003A6AFFF738FFC8E7602324
:102BA00011781A000A4092460B4208D163780A2B2A
:102BB0003FD00B2B63D0012BB9D00020B8E7202ADF
:102BC000FBD1637920791B02CA060343D20E012A86
:102BD00000D16AE1022AF0D1794F7B68FE89002B8F
:102BE000EBD0B0461A7898449B189A79944666467A
:102BF000DA79120232439B1842464646D21A002A1C
:102C000005DCDAE71A789B18F21A002AD5DD5A7823
:102C1000052AF7D19A788242F4D149B2002900DA24
:102C200012E2242321002800FB5C3A6AFFF74EFDE4
:102C30007EE7634F7B68002BBFD0F9891A7808398B
:102C400059189B18DA799879120202439B18CA1A0C
:102C5000002AB2DD5646207904E01A789B18CA1A79
:102C6000002AAADD5A78042AF7D1DA78002AF4D1AA
:102C70009A78824200D10FE10136F6B2EDE7504F6B
:102C80007E68002E99D0FA893378083AB218F6187F
:102C9000F379B1791B020B43F618931B002B8CDDE3
:102CA0002379A44651461C0005E03378F618931B9F
:102CB000002B00DC81E77378042BF6D1F378002B2E
:102CC000F3D1B078A04225D00131C9B2EDE73C4F35
:102CD000617926797868002900D00FE1FA89002807
:102CE00000D16AE7083A03008118002A06DC64E78D
:102CF0001A789B18CA1A002A00DC5EE75A78042A60
:102D0000F6D18278B242F3D1210028003A6AFFF767
:102D10007FFE0DE7A14664469846E378A2781B0241
:102D200013439B463B7B8A464B4500D139E15B46CA
:102D30005246D9B2BB6A48469954FB897A68083B27
:102D4000D218931B002B05DC4BE03378F618931B4D
:102D5000002B46DD7378042BF7D1B3788342F4D18E
:102D6000F3788B42F1D13379002B33D0AA46B946A0
:102D70004546B3460194804634001F00160003E028
:102D80002378E418AF421DD9331B002B1ADD63787A
:102D9000052BF5D121005046FFF754FC002800D147
:102DA0000BE7A378504619000093FFF72FFC009B18
:102DB000DB09012B00D118E10135EDB2E0E7C04697
:102DC000DC130020BB46A8464F465546019CD8451B
:102DD00000D0F2E621002800FFF714FE002800D101
:102DE000EBE63E7F012E52D17B7F002B4FD0BB7F85
:102DF000002B4CD0FB7E002B49D03B69002B46D0EA
:102E0000FEF782FFFB7E9A46002803D0013B9E40DE
:102E1000F3B29A4653463E695E43FEF775FF0100E2
:102E20004B1E9941974B494298461940FA239B0003
:102E30009C4630006144FEF7AFFB3B6986B29B467F
:102E4000FEF762FF01004B1E99414346494219407B
:102E5000FA239B009C467A7FBB7F01365A43564338
:102E60007B89B6B290466144B34210D3B31A9BB289
:102E70009946584653465843FEF78EFB4B46002969
:102E800000D1EFE04A461B0413437B613E832100DF
:102E90002800FFF705FC4AE6B246BA6A0123210082
:102EA00028005244FFF712FC42E6774F1B0A7A686B
:102EB00094464BD16346FA89002B00D17DE6083A4F
:102EC0009E18002A00DC78E662468C46110005E078
:102ED0001A789B18F21A002A00DC6EE65A78042A47
:102EE000F6D18A788242F3D1614649B2002900DBEB
:102EF00097E621002800FFF791FD19E6002800D190
:102F00005BE68378C9B2B34200D056E60378C318B3
:102F1000D8799A79000210431A78861A002E00DCBC
:102F20004BE618189B1805E01A789B18C21A002A5D
:102F300000DC42E6DA788A42F6D1BB7E3A6A8B42FE
:102F400041D021002800FFF765FDF1E5002A00D1FE
:102F500033E69278DBB29846824200D02DE6624694
:102F600012786244D6799079360206431078331A83
:102F7000002B00DC21E696194346121805E0107874
:102F80001218B01A002800DC17E6D0789842F6D163
:102F900049B2002900DB44E621002800FFF740FD8C
:102FA000C6E5380043462C303B7300F013FB21008C
:102FB0002800FFF729FD002800D1FEE543463B72BB
:102FC0007B613B83B3E6E378012BBAD16378012BB5
:102FD000B7D1537811781B020B4391780904194338
:102FE000D3781B060B433B61ABE73022E3781342F7
:102FF00000D0E1E64B46009A49461A7242461A73DF
:10300000637922791B0213434A465B055B0D5381AA
:103010005B461B785B44F21A002A05DC1AE01A783A
:103020009B18F21A002A14DD5A78042A11D0242A97
:10303000F5D19A78012A1CD0022AF0D1DA78012A37
:10304000EDD11A798A77EAE721002800FFF7E4FC3E
:103050006EE589465046FFF723FC002800D0ABE61A
:10306000002065E542469B1ABB824B463E83FB82AD
:103070000DE79A7A4A775A790A775A78242ACED174
:103080009A78D9E7581B0000DC13002010B5074BD5
:103090001A7A8A4208D19A6A0023002A02D0FFF7DE
:1030A000FFFB0300180010BD0023FBE7DC1300202A
:1030B00000B5030083B0002910D00020012B07D8F1
:1030C0000A78002A04D00C48C2540120012A01D0F9
:1030D00003B000BD1800FEF71DFEF9E701236A46A4
:1030E000002001A99380FEF715FE0028F0D00122F0
:1030F000014B1A70ECE7C046B41400204379027902
:103100001B021343C2785B0592075B0D920F022AE4
:103110001DD0032A0CD00020012A08D102394A42CE
:103120005141124A9446614499424041C0B27047AD
:1031300002394A1E91410E4A494211408022D20072
:1031400094460020614499424041C0B2EFE7022911
:1031500005D0002040229A424041C0B2E7E7054A2C
:10316000981843425841C0B2E1E7C046FF0300004F
:1031700040FCFFFF00FEFFFF8A1870B5914207D2A6
:103180007F264C78052C04D00C7809198A42F8D88F
:1031900070BD34008D782C4064000419ED0963552E
:1031A0000C7809198A42ECD8F2E7C046F0B5C64659
:1031B00000B504006846057E8020884617001E0082
:1031C0000002824226D8E068002803D0012149424B
:1031D00000F09EFA2069002803D00121494200F046
:1031E00097FA4346236073045B0CED031D430023F1
:1031F000E0686381A780E5802381002801D000F08A
:1032000067FA2069002801D000F062FA012080BC32
:10321000B846F0BD0020FAE710B5048941898288DC
:10322000A3B288B28C4207D31B1A9BB2101C9A42DD
:1032300000D9181C80B210BD5100091A5B189BB24E
:10324000F4E7C04670B5040000690E00002803D002
:103250000121494200F05CFA25896089A288A9B25F
:1032600083B2854232D3CD1AADB2002D28D0AA4206
:1032700008D291422FD3891A8BB263819A4203D824
:103280009B1A9BB29A42FBD9E28821685204520CE5
:1032900053433000C918FEF77DFA63890125591C94
:1032A00089B2A2888B420DD900215200891A89B2B5
:1032B00020696181002801D000F00AFA280070BD61
:1032C000618989B252009142F2DBEFE75500ED1AB5
:1032D0004D19ADB2C9E789188BB26381CEE7C046FC
:1032E000F0B546464F46D646C0B506000069894649
:1032F0009046002803D00121494200F009FA3189A3
:103300007289B5888BB294B2914254D31F1BBFB25D
:10331000002F4AD0BD4205D2AB4251D25B199CB2BC
:103320002F0074814346B8453DD89FB2A54203D8CB
:10333000641BA4B2A542FBD9F28831685204520C36
:10334000904662432B1B9BB2891842469F4225D967
:1033500053439BB21A0048469A46FEF71BFA43466F
:1033600048467D1B64195C4331685044A2B2FEF7A5
:1033700011FA7189B588CB199BB26A00994216D9A6
:103380009B1A9BB230697381002801D000F0A0F92C
:103390003800E0BCBA46B146A846F0BD48467A437C
:1033A000FEF7F8F9E5E73B1CBFE773899BB26A00BB
:1033B0009342E7DBE4E76F003F1BDF19BFB2A7E7EB
:1033C0005B1B9CB2ACE7C046F8B50400C0680E00B9
:1033D000002803D00121494200F09AF9258920896B
:1033E0006189A288ADB283B28FB2884229D3DB1B38
:1033F0009BB29A4209D8E779FF0906D1E068002814
:1034000001D000F065F93800F8BD2B0095421DD3BE
:103410009B1A9BB29342FBD2E28820685204520C62
:1034200053433100C018FEF7B5F96B1C9BB2A2885C
:103430009D4217D9002352009B1A9BB2012723817A
:10344000DCE75100C91B5B189BB2D2E7E288206819
:103450005204520C53433100C018FEF79BF901355A
:10346000A288ABB252009342E8DBE5E7F0B54546EF
:103470004E46DE465746E0B588460500160083B046
:10348000002A6ED0C068002803D00121494200F014
:103490003FF92F89EA79BBB29B466B89AF889BB213
:1034A000D2093FD19B4565D27A00D31A5B449BB2C7
:1034B000BB4264D2FB1A1A1C9BB2B34200D9321C25
:1034C00096B2F31B9BB29A465B46F3189BB29946A1
:1034D000EA885C46BB4503D3E41BA4B2BC42FBD2E2
:1034E00052043B1B570C3A00624328689BB2801879
:1034F000B34256D33A0041467243FEF74BF9AB88CC
:103500005B00CB4501D8994503DB4A46D31A9BB2F1
:1035100099464B4637002B81E868002822D000F0FE
:10352000D7F81FE0BE422CD29B454BD35A46D21A45
:1035300092B27900F01B80B2921982468A42C3DBB4
:10354000DA1992B29146921B92B2934693423ED9B7
:103550005B46591A8BB29B46F3189BB29946EA8890
:10356000B7E70027380003B0F0BCBB46B246A94617
:10357000A046F0BD5A46D31A9BB2BB429AD300274D
:10358000CAE7002FC8D0EA88F61B5104490C7143E2
:103590009B468844D919002389B289463E009A4641
:1035A00097E77B4399B20A00019154444146FEF7E4
:1035B000F1F822007A430199286892B24144FEF75B
:1035C000E9F89CE77900CA1A5A4492B2B2E79142EC
:1035D000BEDDC4E710B50400C068002803D0012197
:1035E000494200F095F82069002803D001214942A2
:1035F00000F08EF80023E06863812381002801D069
:1036000000F066F82069002801D000F061F8012080
:1036100010BDC04610B5024800F004F810BDC04609
:10362000641E002010B588B004000D2200216846F9
:10363000FEF7AAF80D22002104A8FEF7A5F84B23F7
:103640006A466846137004A90D2200F039F8152166
:10365000082220006944FEF79DF808B010BDC0465E
:1036600010B583070AD00300032102E001330B42A7
:1036700005D01A78002AF9D1181A10BD030019686C
:103680000C4A0D4C8A188A4322420FD15968094AC4
:1036900004338A188A43224208D15968054A043300
:1036A0008A188A432242F1D000E001331A78002AB6
:1036B000FBD1E1E7FFFEFEFE80808080F8B5C046CA
:1036C00001B40248844601BC604700BFE10D002000
:1036D00001B40248844601BC604700BFE5010020F8
:1036E00001B40248844601BC604700BF110A0020B3
:1036F00001B40248844601BC604700BFE9090020CC
:1037000001B40248844601BC604700BF1D0F002081
:1037100001B40248844601BC604700BF5901002043
:1037200001B40248844601BC604700BFC1000020CC
:1037300001B40248844601BC604700BFA10A0020D2
:1037400001B40248844601BC604700BF510A002012
:1037500001B40248844601BC604700BF0D0200204E
:1037600079130010A51300108915001079170010A7
:10377000E5150010E9160010B1140010C113001077
:10378000E1130010F513001025090010FD130010BF
:10379000D50C001041130010D10500101536001093
:0437A000B102001062
:1037A40068657436380000005069636F20366368BA
:1037B400204D6963726F70686F6E65003132333407
:1037C400353600000A2A2A2A2050414E4943202A2D
:1037D4002A2A0A000A0000004E6F207370696E6C7A
:1037E4006F636B732061726520617661696C6162DD
:1037F4006C650000486172647761726520616C6178
:10380400726D20256420616C726561647920636C3B
:1038140061696D65640000004861726420617373BE
:103824006572740052656C6561736500626F6F74D4
:10383400325F77323571303830000000322E322E4C
:10384400300000007069636F000000007069636FEE
:103854005F366D69635F736F756E64636172640074
:10386400536570203231203230323500556E686134
:103874006E646C65642049525120307825780A00C2
:10388400657020253032582077617320616C726531
:1038940061647920617661696C61626C6500000025
:1038A40043616E277420636F6E74696E756520784A
:1038B400666572206F6E20696E6163746976652037
:1038C40065702025303258004C454400E038001023
:1038D400A4370010AC370010C037001009040000F2
:1038E4001201000200000040FECA6640000101020D
:1038F40003010000090200000201008032080B00ED
:103904000201000000090400000001012000092454
:103914000100020000010108240A0103070000114C
:103924002402020102000106000000000000000C55
:10393400240603020F000000000000000C2403040E
:10394400010100030100000009040100000102203C
:1039540000090401010101022000102401040001F6
:10396400010000000600000000000624020102100D
:103974000705810DC00001082501000000000000BA
:1039840006005250D3F075422838001006005250F9
:10399400E182887F3038001006005250ABB3605388
:1039A4004038001006005250BBFF3CB648380010A7
:1039B40006005250861C0302503800100600525074
:1039C4005422A29D6438001005005250DE65F4684C
:1039D400684A00100D0A00002C1E0010941F0010ED
:1039E4001E2000106C1F00107E1F00105C1F0010B2
:1039F400CC1E0010781E00106C1E00103423001022
:103A04001A2300100C210010542300100C21001064
:103A140002230010EE2200100C210010DA22001004
:103A2400EE2100100C210010A0250010922500109A
:103A3400862500100C2100100C21001070250010A8
:103A4400922500100C2100100C2100100C210010F4
:103A54000C2100100C2100100C2100100C2100106E
:103A64003A2500106E0B00206E0B0020B80B0020CE
:103A7400D80B0020160C0020280C0020640B00201A
:103A840000000000592A0010B92A0010BD2A0010B5
:103A9400D92A0010152B00108D300010290D00209C
:0C3AA4000900525000000002CC38001055
:103AB00084390010903900109C390010A83900108A
:103AC000B4390010C0390010CC390010A43A0010ED
:103AD000F0B5C646150000B504001E000268EFF3FD
:103AE000108172B61368002BFCD0BFF35F8F0423E4
:103AF000E3562268002B2BDBBFF35F8F00201060A2
:103B000081F31088D02212061278002752B2904614
:103B10009A420ED1002080BCB846F0BDBFF35F8F43
:103B2000176081F310882800310000F011FF002891
:103B3000F0D12268EFF3108172B61368002BFCD02D
:103B4000BFF35F8F237922687F2BE7D9434602E0DA
:103B5000D0231B061B682371BFF35F8F0023136004
:103B600081F310880120D6E7F0B5C64600B50D00F8
:103B7000040000F015FFFA2206000F0000232800C1
:103B80000021920000F0ECFE36184F41002F02DABF
:103B90000126174F7642D0231B061B680025984646
:103BA0000AE0BFF35F8F156081F3108830003900A1
:103BB00000F0CEFE002818D12268EFF3108172B613
:103BC0001368002BFCD0BFF35F8F237922687F2B13
:103BD000E7D943462371BFF35F8F0023136081F35E
:103BE0001088012080BCB846F0BD0020FAE7C0462E
:103BF000FFFFFF7F0268EFF3108172B61368002B9E
:103C0000FCD0BFF35F8FFF2303710368BFF35F8FA7
:103C100000221A6081F3108840BF70470022154BC4
:103C200010B59A60DA601A615A619A61DA611A62B3
:103C30005A629A62DA621A635A639A63DA631A649E
:103C40005A649A64DA641A655A659A65DA651A667E
:103C50005A669A66DA661A675A679A67DA67F032BE
:103C600092000021044800F08BFE044B044A1A60C5
:103C700010BDC04600001050B4190020381E0020AE
:103C800080011050F0B54E464546DE465746E0B539
:103C9000214B00249E6D012585B0002E22D01F4BA4
:103CA0009A46012399461E4B984601E0202C19D0D4
:103CB0002A00230001342F003240E4B26D00002AB4
:103CC000F4D0524697654A465B085B0022409B1839
:103CD0005B01434418009B4600F01EFC002808D1FD
:103CE000BE43E3D105B0F0BCBB46B246A946A046F0
:103CF000F0BD5B46E0219A78DB8A01A8836000234F
:103D0000C900018001210271437100F025FC584671
:103D100000F0A0FBE4E7C046000011500030115055
:103D2000741900209823F0B5C646C84A00B5D55886
:103D300080232E009B02102484B01E401D4274D0AC
:103D4000C34BC44C9A6AC44B00261A603B23E35C05
:103D5000022B00D14FE17B23E35C022B00D1F3E087
:103D6000BB23E35C022B00D1FAE0FB23E35C022BD4
:103D700000D101E13C23FF33E35C022B00D12DE1B4
:103D80007C23FF33E35C022B00D10EE1BC23FF3325
:103D9000E35C022B00D13FE1FC23FF33E35C022B09
:103DA00000D1F5E0AD4BE35C022B00D174E1AC4BEC
:103DB000E35C022B00D105E1AA4BE35C022B00D1AE
:103DC00075E1A94BE35C022B00D132E1A74BE35C28
:103DD000022B00D1A0E1A64BE35C022B00D171E1E4
:103DE000A44BE35C022B00D1A1E1A34BE35C022BCB
:103DF00000D17FE1002E08D1A04B1B78002B04D10D
:103E000080219F4A90338902D150C02269468F4B4E
:103E100092009B6C80265B058A805B0D012101A8C6
:103E2000029300F099FB974CB602EB0600D57FE0B9
:103E300080235B021D4231D01E4301230224984699
:103E4000844FBB7E002B14D000F092FD012800D9D6
:103E500072E0C02200213800920100F001FB38001E
:103E600000F0F8FA00F084FD012802D9844B5C666A
:103E70001C664346FB702037012C22D1C0236A46C2
:103E8000DB009380804A02AB03CA03C3012101A86F
:103E900000F062FB80227A4B92021A6580235B015C
:103EA0001D4210D18023DB011D4223D180231B0240
:103EB0001D422FD1AE4200D0C0E104B080BCB84654
:103EC000F0BD0124BDE700241E43604B1C60FFF7DA
:103ED000A5FE80236A465B0093801472012101A82D
:103EE00000F03AFB8022664B12031A658023DB0147
:103EF0001D42DBD01E4380236A46DB0093800121F4
:103F000001A800F029FB10225D4B1A6580231B02DB
:103F10001D42CFD01E43A0236A46DB0093800121BF
:103F200001A800F019FB8022554B12011A65C1E768
:103F3000FFF7A8FE26007BE7544B444A1C66536EED
:103F40002340A342FBD184E77833E75C002F00D104
:103F500006E70233E25C002A00D00DE13E00FFE6F6
:103F6000B833E75C002F00D1FFE60233E25C002AA1
:103F700000D0F9E03E00F8E6F833E75C002F00D10E
:103F8000F8E60233E25C002A00D041E13E00F1E6AF
:103F9000F933FF33E75C002F00D103E70233E25C23
:103FA000002A00D02BE13E00FCE67933FF33E75CCA
:103FB000002F00D1EAE60233E25C002A00D015E1CE
:103FC0003E00E3E6324BE75C002F00D1F4E602331B
:103FD000E25C002A00D001E13E00EDE63933FF3318
:103FE000E75C002F00D1CBE60233E25C002A00D070
:103FF000EBE03E00C4E63833E65C002E00D1AAE6D2
:104000000233E25C002A00D1A5E620000022203025
:10401000E25400F04DFA9EE6B933FF33E75C002F1F
:1040200000D1B9E60233E25C002A00D0C4E03E00D1
:10403000B2E6184BE75C002F00D1C7E60233E25C22
:10404000002A00D0B0E03E00C0E6C046000011509B
:104050000040054074190020E41700203B020000D6
:104060007B020000BB020000FB0200003B030000DB
:104070007B030000BB030000FB030000351F002092
:1040800000301150100002000000105000201150AC
:104090007A020000FA0200006B4BE75C002F00D1AF
:1040A00085E60233E25C002A76D13E007FE6674B6C
:1040B000E75C002F00D184E60233E25C002A63D182
:1040C0003E007EE6624BE75C002F00D188E60233BB
:1040D000E25C002A00D0A3E05E4BE35C022B30D10F
:1040E0005D4BE35C002B27D15C4BE35C022B00D0E3
:1040F0008BE63E005A4BE35C002B00D17AE6FF23AF
:104100009B00E25C002A00D17FE60022E2541C3BC7
:10411000E01800F0CDF978E6524BE75C002F00D1B3
:1041200059E60233E25C002A16D13E0053E64A4BC0
:10413000E35C002B00D158E6EF239B00E25C002AF1
:1041400075D1464BE35C022B00D05EE6444BE35C4A
:10415000002B00D159E6D2E70022E2541C3BE018C4
:1041600000F0A6F93E0036E620000022A030E2541E
:104170003E0000F09DF9F8E5200000226030E25496
:104180003E0000F095F9EBE50022E2541C3BE018FC
:1041900000F08EF93E0014E60022E2541C3BE018C9
:1041A00000F086F93E0002E60022E2541C3BE018D3
:1041B00000F07EF93E0009E620000022A130FF3029
:1041C000E2543E0000F074F9E6E5200000222130C0
:1041D000FF30E2543E0000F06BF9D1E50022E254DA
:1041E0001C3BE01800F064F93E00E5E520000022E9
:1041F0006130FF30E2543E0000F05AF9C6E520007D
:104200000022E130FF30E2543E0000F051F9C9E5F0
:1042100020000022E030E2543E0000F049F9A9E518
:104220000022E2541C3BE01800F042F954E700225F
:10423000E2541C3BE01800F03BF982E731000A48E9
:10424000694000F0A5FBC0463A020000BA02000037
:104250007A030000BB030000BA030000FB03000068
:10426000FA0300003A03000070380010F0B5C646AB
:1042700000B50200838A008B8C46011C984200D94D
:10428000191CD47880252000461EB04189B2ED006B
:104290000D434003284301256C405B1AD4705478C9
:1042A0009BB29382002C31D16446D568A4014E1E86
:1042B0002D19B0461469002923D0062E32D92B00BF
:1042C00023439B072ED12B1B013B022B2AD9002312
:1042D0008F08BF00E658EE5004339F42FAD14346A0
:1042E000ED19DB1BE419B94209D026782E70002B9A
:1042F00005D066786E70012B01D0A378AB7014697D
:10430000938A64181461802212021043002B02D198
:104310008023DB0118436346002B00D0000480BCDF
:10432000B846F0BD0023E65CEE5401339942FAD161
:10433000E5E7C0468368F0B51A680400002900D09C
:10434000120C63789205900D002B08D1E38AC318F4
:10435000E382238B834201D90023A382F0BDE3686B
:10436000890125695E18471E002822D0062F26D90C
:1043700001315B18EB1A022B21D92B0033439B0729
:104380001DD10023120E9200F158E95004339A42D5
:10439000FAD1BF1AAD18B618904209D032782A70F7
:1043A000002F05D072786A70012F01D0B278AA7000
:1043B0002569E38A2D18C318E3822561C9E7002225
:1043C000B35CAB5401329042FAD12569F1E7C046A3
:1043D00010B50400836800211B68FFF7ABFF63681A
:1043E0001B685B0002D5238B834200D010BD0121E6
:1043F0002000FFF79FFFF9E7084A0300126C002036
:10440000920703D49A78D209012A00D07047D87E47
:10441000023843425841C0B2F8E7C046000011508C
:1044200010B5FFF7E9FF00280CD00749074B8C4671
:10443000074A9B6A126863449B1A0020C6229A426C
:104440004041C0B210BDC046E0FCFFFF0040054047
:10445000E417002000238376436103617047C04660
:1044600010B58368002901D01C682140002A12D0B1
:104470008024E400114322420DD01A6822420CD15C
:10448000084A0A401A60084A126C920703D40C23A7
:10449000033BFDD28368196010BD8178034800F0AA
:1044A00077FAC046FFFBFFFF000011508438001070
:1044B000436870B50021802504001E68FFF7D6FE12
:1044C000124B6D011A6C0543A37892070ED55B065B
:1044D0000ED00F4B1E4080239B05334362680021A2
:1044E000136020002A00FFF7BBFF70BDDB09F0D08E
:1044F000A38A002BEDD001212000FFF7B7FEA023F7
:10450000044ADB05324005431343E7E7000011503E
:10451000FFFFFFAFFFFFFFDF70B5857E0400002DBA
:1045200014D0FFF755FFA38A002B01D1280070BDDE
:104530002000FFF775FF002803D001230025237713
:10454000F4E72000FFF7B4FF0025EFE7817801488A
:1045500000F01EFAA4380010F0B5CE46474680B5EC
:10456000437805000E0085B0062B08D86B4A9B00E7
:10457000D3589F466A4A13780133DBB21370694BF4
:104580001C686269EFF3108172B61368002BFCD0CF
:10459000BFF35F8FA1612000290000F0D1F96269AB
:1045A000A369BFF35F8F0021116083F31088002897
:1045B00004D105B0C0BCB946B046F0BD3200697840
:1045C000287800F0B5F9F4E70121574B1A788A43AF
:1045D0001A701A7801318A431A7000225A701A78B8
:1045E00002318A431A70CAE7504B514F9946514BDA
:1045F000002498463A7810E043461B6861015B1836
:10460000002B06D0DB69002B03D069682878984717
:104610003A780134E4B2944217D8A242ECD8A31AF3
:104620005B014B44EEE7404B1A78D207C1D5042119
:104630001A780A431A70A2E73B4B1A78D207B8D50A
:1046400004211A788A431A7099E7374F3B785B0741
:104650002BD504223B78002193433B706B460632F6
:10466000981D00F08DF92B7801AC23700523637041
:104670002C4B1B6898465A69EFF3108172B6136889
:10468000002BFCD0BFF35F8F434640469961210069
:1046900000F056F943465A699B69BFF35F8F0021CA
:1046A000116083F31088002831D1FB78DB0700D438
:1046B0007FE76B460A220021981D00F061F92B78F4
:1046C00001AC2370032363706B686360154B1D6836
:1046D0006A69EFF3108172B61368002BFCD0BFF348
:1046E0005F8FA9612800210000F02AF96A69AB698F
:1046F000BFF35F8F0021116083F31088002800D181
:1047000057E732006178207800F012F951E7320063
:104710006178207800F00CF9C7E7C046683A0010CD
:10472000361F002018150020C0140020843A001005
:10473000341F0020D81300207047C04610B5084C25
:104740002378002B0AD18023064807495B051A68A5
:10475000C25004338B42FAD10123237010BDC046EE
:10476000371F0020E01500100001001010B5014BAC
:10477000984710BDE1150020064B5A6802609A6800
:104780004260DA6882601A69C2605A6902619B6994
:1047900043617047000002400268064B5A6042685D
:1047A0009A608268DA60C2681A6102695A61426975
:1047B0009A61704700000240034B1A68C0239B00B7
:1047C0009343024A136070470C8001400C900140F3
:1047D000054B1A6880239B005340C022920013406F
:1047E000024A13607047C0460C8001400C900140A3
:1047F0000023F0B5DE4657464E4645469A46E0B59C
:1048000089B001900E00988A45491B8B1400984787
:10481000534681464349988A1B8B984753464249E1
:104820000500988A1B8B98478046FFF787FF02A8F0
:10483000FFF7A2FFC847A847FFF7CAFF251E22D0EF
:104840000823C0219C460220490562468B6A1A4013
:1048500018423FD0631B002D2FD1002A11D1002C0C
:1048600011D0C0235B059B4602239A460633994626
:104870005B464A4657469B6A1A401F4242D0002A6E
:10488000F6D0002C30D1FFF797FFC047FFF76EFF3F
:1048900002A8FFF781FF09B0F0BCBB46B246A946AB
:1048A000A046F0BD002C2FD1C0225205926A91463D
:1048B00008224F463A40BF072DD50D2B1BD9002AA1
:1048C000F0D1C0225205926A914608224F463A40E2
:1048D000BF07F2D4002A04D12B002343002BB4D10C
:1048E000D1E72B00002CF9D00B6E013C3370230074
:1048F00001362B43F2E7019F013D3B7801370B6600
:104900000197E7E70025E5E7C0235B051B6E013C47
:104910003370013699E72B00002ADFD1DCE7C0466F
:104920004946000045580000464300007047C04615
:1049300001B40248844601BC604700BFF51C00106A
:1049400001B40248844601BC604700BFC93300106F
:1049500001B40248844601BC604700BFD50E001078
:1049600001B40248844601BC604700BFB516001080
:1049700001B40248844601BC604700BF71040010C6
:1049800001B40248844601BC604700BF891700108B
:1049900001B40248844601BC604700BF7D0400109A
:1049A00001B40248844601BC604700BF05100010F6
:1049B00010000000000000000000010000000000E6
:1049C00000000000000002000000000000000000E5
:1049D0000000030000000000000000000000FF00D5
:1049E0000000000001B5486801318E46004770465E
:1049F00009380149884701BD610800100000000026
:104A000000000000000000000000000000000000A6
:104A1000581000200000000000000000000000000E
:104A2000503300004C330000543300005233000078
:104A30004D5300004D430000533400004334000048
:104A40001C15002010000C000000000000000000F9
:104A5000000000000000000000000000FF00000057
:084A600000000000000000004E
:04000005100001E9FD
:00000001FF
