:020000041000EA
:10000000002008205D0100101B0100101D010010E0
:100010001101001011010010110100101101001058
:100020001901001019010010190100101F01001022
:10003000110100101901001021010010230100100E
:100040001101001011010010110100101101001028
:100050001101001011010010110100101101001018
:100060001101001011010010110100101101001008
:1000700011010010110100101101001011010010F8
:1000800011010010110100101101001011010010E8
:1000900011010010110100101101001011010010D8
:1000A00011010010110100101101001011010010C8
:1000B00011010010110100101101001011010010B8
:1000C00011010010110100101101001011010010A8
:1000D0001101001011010010110100101101001098
:1000E0001101001011010010110100101101001088
:1000F0001101001011010010110100101101001078
:100100001101001011010010110100101101001067
:10011000EFF30580103800BE00BE00BE00BE00BE7A
:1001200000BE00BEF2EB88716C3700108C370010F7
:10013000A001001090A31AE7D3DEFFFF42012110B7
:10014000FF01000078430000793512AB4FF000004A
:100150001E49086006C881F3088810474FF05040D8
:10016000006810B14FF00000F2E70DA40ECC00299A
:1001700002D000F012F8F9E71549164A002000E015
:1001800001C19142FCD11449884714498847144958
:10019000884700BEFDE701C901C29A42FBD3704700
:1001A0008C37001010010020340E0020B0440010E5
:1001B0000000082000000820B044001000100820B3
:1001C00000100820000000007047000008ED00E06B
:1001D000340E0020541A002049140010350200107B
:1001E00041140010F8B500BF064B0749C91A891021
:1001F00048BF0131491003D0044B0BB101481847E7
:10020000704700BF340E0020340E002000000000B4
:1002100008B5054B1BB105490548AFF30080BDE8A3
:100220000840FFF7E1BF00BF000000004C190020AC
:10023000E8340010F8B501F0EBF90021084602F0AF
:100240005DFD192000F0A4F819234FF0010242ECE3
:1002500044304FF0000242EC403000F0B7FE4FF067
:10026000FF356FF00042164C4FF0FF36041941F194
:100270000007A54272EB07033CBF17462C46104D02
:1002800000214FF0FF3001F00FFC00F09FFE201A1C
:1002900067EB0101012871F10001F1DA4FF0007301
:1002A00020EE10306FF00043641947F10007A642BA
:1002B00073EB0702E4D24FF0FF341F46E0E700BFC4
:1002C000A0860100704700BF704700BF704700BFA5
:1002D000704700BF0BB90120704708B5084602F00F
:1002E000E9F948B1C0220021044802F0C3FFC0224E
:1002F0000020024902F0E6F9012008BD9019002013
:10030000004870473036001010B599240449224641
:10031000044802F0FDFF034B9C70184610BD00BF5F
:1003200044360010E011002038B540B940F20942CF
:100330004FF44173144D6A8013482B8038BD032855
:100340001FD8124B104D53F82040204603F056F8AA
:10035000C0B21F28844628BF4FF01F0C50B10023A5
:100360002A46601E013310F8011FDBB29C4522F8BB
:10037000021FF7D80CF10103DBB25B0043F44073BA
:10038000DAE7002038BD00BF541000201C360010F2
:1003900030B44FF0000343EC440043EC400005252B
:1003A0004FF480740B4BC20053F8201003EB800015
:1003B00081F0400102F1804303F5203301F0C002D7
:1003C00000F5805100F540500A605D60046030BC6B
:1003D000704700BF048003400FB400B583B0049C95
:1003E000074801F059F93CB105A92046019101F0F7
:1003F0000DF8044801F050F9012001F01FF800BF8A
:10040000143500102435001070B58646EFF31085C2
:1004100072B6124CD4E8CF6F0120002EFAD1C4E896
:10042000460F002EF6D1BFF35F8F4FF0010CC808C6
:1004300001F007030CFA03F31EF800C01CEA0306E0
:1004400008D14CEA030C0EF800C0C4E88F6F85F3A6
:10045000108870BD1046FFF7BFFF00BF9F1000203F
:10046000F8B5EFF3108772B61C4ED6E8CF5F0124C3
:10047000002DFAD1C6E8454F002DF6D1BFF35F8FAE
:100480009A421BD8012502E00132934222D3D408BC
:1004900010F804E002F0070C05FA0CFC1EEA0C0F41
:1004A000F2D14EEA0C0E00F804E010460023C6E834
:1004B0008F3F87F31088984207DBF8BD0023C6E81A
:1004C0008F3F87F310884FF0FF300029F5D0069852
:1004D000FFF782FF4FF0FF30E8E700BF9F100020DA
:1004E000044A1078431CDBB2182B28BF102313706A
:1004F000704700BFA80D002010B5054C82B0014622
:100500001F23182200940348FFF7AAFF02B010BD72
:10051000283500107C1200204FF0E022936843F051
:1005200000539360704700BF0021044B03F1200289
:10053000C3E88F1F01339342FAD170479410002013
:100540004FF0E0234FF08032C3F80024C3F80424B6
:10055000C3F80824C3F80C24C3F81024C3F81424E7
:10056000C3F81824C3F81C24C3F82024C3F8242497
:10057000C3F82824C3F82C24C3F8302462B670478B
:10058000012300F01F029340400941B1800000F1B7
:10059000604000F56140C0F8803103607047024A56
:1005A000203042F82030704700E100E0F8B50D46F9
:1005B000EFF3108772B6124ED6E8CF2F0123002A30
:1005C000FAD1C6E8423F002AF6D1BFF35F8F0D4B48
:1005D00000F110049B680C4A53F82430934203D076
:1005E000994201D000F0FAFD064B9B6843F8245075
:1005F000BFF35F8F0023C6E88F3F87F31088F8BDF5
:100600009D10002000ED00E0110100102DE9F04FD9
:1006100081468B46164683B0EFF3108372B6DFF83F
:10062000D0A10093DAE8CF1F01230029FAD1CAE84C
:10063000413F0029F6D1BFF35F8F664B93F900402D
:10064000002CC0F2A080644D04EB440705EB870842
:1006500098F8061009F110091970604BBF009B68EB
:1006600053F829006300411B2F292FD95C49884288
:1006700040F0A4801C445B4B02372F44043BDB1B3F
:10068000C3F34A036FEAC3434FF421416FEAD343F4
:1006900025F8241005EB840463804BF60153A380F6
:1006A000FF2348F00100E671C4F808B0A3714B4B7A
:1006B0009B6843F82900BFF35F8F0023CAE88F3F90
:1006C000009B83F3108803B0BDE8F08F20F0010E8B
:1006D0009EF80710B1422ED84FF42143EB53414B03
:1006E000B91C2944043B04375B1A2F44AEF10401C2
:1006F000C91BC1F34A043C49C3F34A030B432143DA
:10070000A8F804103949A8F802304AF6AA2073461E
:100710005B1B5B415843000D88F8076088F80600B2
:10072000C8F808B048F00100CEF80010BFE7D17952
:10073000B1422ED996469EF906C00CEB4C02BCF194
:10074000000F05EB8202F2DA4BF601510EF10402C2
:10075000A8F10407BF1AC7F34A076FEAC7476FEA51
:10076000D7478EF8064003EB0408204C05EB8803BE
:10077000AEF8047045F82840998083F806C0DE7111
:10078000C3F808B093E700F029FD124B93F900403D
:1007900059E7724632F8041F490514D4491502314D
:1007A00002EB410101916FF00701C91B019F491B39
:1007B0003944C1F34A0141F46041C9E7019300F0B3
:1007C0000DFD019B56E701F5FF1101F5FF511F31AA
:1007D000E4E700BF531A0020AC0D002000ED00E05C
:1007E00011010010DC0D002000E0FFFF01488047F0
:1007F0009D100020F0B5EFF30585EDB2EFF3108CFE
:1008000072B62649D1E8CF2F0123002AFAD1C1E8D8
:10081000423F002AF6D1BFF35F8F214E40F0010E18
:10082000B4684AF6AA2354F825701E4A0446A41A4E
:10083000644163431B0D77455BB21BD092F90640C0
:100840009C421CD092F912409C4223D092F91E4047
:100850009C4221D092F92A409C4208BF03240FD029
:10086000114A0024157813708571C1E88F4F8CF3FD
:100870001088F0BDB2680D4C42F82540F0E7002426
:1008800004EB440402EB8402FF2494714BF6015400
:100890009480E5E70124F3E70224F1E79D100020AE
:1008A00000ED00E0AC0D0020531A002011010010F3
:1008B000014B0B44036070479410002070B5104C3E
:1008C000104DAC420ED2FF26236863B1FFF708FE3D
:1008D00001462046FFF7ECFFA680BFF35F8F083488
:1008E000AC42F1D370BDFFF7FBFD01462046FFF798
:1008F000DFFF2671BFF35F8F0834AC42E4D370BDD5
:100900002C0E0020340E002010B50446FFF7E8FD41
:1009100001462046FFF7CCFFFF232371BFF35F8F13
:1009200010BD00BF10B504460120FFF7E5FD034BE5
:1009300003442360BFF35F8F10BD00BF94100020FD
:100940000D4B1A68EFF3108172B6D2E8CFCF0120B9
:10095000BCF1000FF9D1C2E84C0FBCF1000FF4D18B
:10096000BFF35F8F00221B68C3E88F2F81F31088CD
:1009700040BF0020002170478C19002000000000BB
:100980002DE9F04F2DED028B85B0EFF30583DBB23F
:10099000103B9A0818BF01224FF0010103F0030B2E
:1009A00018BFAD4DAD4B08BFAD4D0BEB820253F8F8
:1009B000226001FA0BF205F541539FEDA58B0192E0
:1009C0005A6031E0B3881B0440F19580B379002B65
:1009D00040F0DF80B6F90830002B0093C0F20581AB
:1009E0001A46736902EB420403EBC403D3E90247DE
:1009F000B7F1FF3F08BFB4F1FF3F0ED005EB8B010D
:100A0000AB6A0A69D21AE31A934205D301232A6A10
:100A100003FA0BF3134200D10C61284600F0CEFA22
:100A2000A042B941C0F2E180B6F90830019A002B2A
:100A30000093EA63C6DBD6F8148003EB430928462B
:100A400008EBC907D7E9024A00F0B8FAA04271EBF7
:100A50000A01B7DBBAF1000FC0F2CD80D7E904314B
:100A6000804A934200F000817A88B6F9080092B279
:100A700042EA0040984702460B4652EA030100F062
:100A8000BA80002B80F2D580B4EB020E6AEB030A29
:100A900038F93930C7E902EA002B93DB716903EBBF
:100AA000430201EBC202D2E90270BE457AEB000CB0
:100AB0004FEA430286DBB4462CF8083F06E003EB1E
:100AC000430001EBC0005A00D0E90270BE451A4451
:100AD0007AEB000001EBC20404DB31F93230A446AA
:100AE000002BECDA28F83930009BACF80030B388E2
:100AF0001B043FF56BAF3369EFF3108272B6D3E896
:100B0000CF0F01210028FAD1C3E8401F0028F6D1F9
:100B1000BFF35F8F4FF6FF74B0880023316900B2D6
:100B2000B480C1E88F3F82F310889842FFF64EAF41
:100B30000746A946746906F1080807EB470E04EB5F
:100B4000CE03D3E90250B6F90830C446002B13DBBC
:100B5000B246009704E034F936309446002B09DBA6
:100B600003EB430604EBC602D2E90271BD4270EB0F
:100B70000101F0DA5646009FACF8007034F93E707F
:100B800024F83E30002FD8DAB3794D46002B3FF4DD
:100B900021AF0023B371B6F9083006F1080E5F1CCF
:100BA000009322D09C46706902E08E465A1C16D0F3
:100BB00003EB430200EBC2014C881F46240430F9CA
:100BC0003230F2D5BC4581ED028BEFD0AEF800306B
:100BD0003189BC4620F832105A1C3781E8D163466F
:100BE000002BCDF800C0BFF6FBAE40BF05B0BDEC9A
:100BF000028BBDE8F08F38F8393033813369EFF379
:100C0000108272B6D3E8CF0F01210028FAD1C3E8D1
:100C1000401F0028F6D1BFF35F8F7388316928F831
:100C20003930009B73800023C1E88F3F82F3108826
:100C3000C8E62846CDE9022300F0C0F9029A039BDA
:100C400010EB020E43EB010A22E700BFAFF3008076
:100C5000FFFFFFFFFFFFFFFF00800B406419002034
:100C600000000B408109001008460B69029198476B
:100C70000028C0D00299D1E90023FEE62DE9F84F03
:100C8000364C25692DB1BDE8F84F0A213448FFF7ED
:100C90000FBEDFF8E4800321404600F07DF9032613
:100CA000C4F80C80FFF71CFC4FF0504C2D4B267005
:100CB00003442361DCF800300F21637063696180B5
:100CC0001D834FF00405A3F878504FF00505A3F8F5
:100CD00090504FF00605A3F8A8504FF007050E21DD
:100CE0004FF6FF7208274FF00A0EA3F8C0504FF0DE
:100CF00001094FF00C0C4FF0020B4FF0090A0D20C8
:100D00004FF00B05A3F868111749A280A3F808E17A
:100D1000A160A3F848B0A3F8F0A0A3F82051A3F86D
:100D200038C1A3F85001A3F83090A3F86060A3F88D
:100D3000D8701A800D4B3046C8F820700C49DC6022
:100D4000FFF734FC49463046FFF71AFC094B0A21ED
:100D50001F640348BDE8F84FFFF7AABDF40D00205B
:100D60008C19002094100020FFFF1000641900204F
:100D70008109001000200B4000000B400146F0B537
:100D80000069EFF3108772B6D0E8CF5F0124002D21
:100D9000FAD1C0E8454F002DF6D1BFF35F8FB1F90E
:100DA00002E04C690EEB4E0CBEF1000F4FEACC0591
:100DB000086904EBCC0C3CDB665B4E800026C0E887
:100DC0008F6F87F31088BCF80200CCE90223013052
:100DD000C0F30E00012838BF0120059BACF80200CB
:100DE000CCF81030069B40EA0E40CCF814300B696A
:100DF000EFF3108272B6D3E8CFCF0127BCF1000F1A
:100E0000F9D1C3E84C7FBCF1000FF4D1BFF35F8F81
:100E10008B886353A1F804E00B69C3E88F6F82F3FA
:100E200010880122CB68097803F501538A405A6083
:100E3000F0BD0023C0E88F3F87F310884FF0FF30EC
:100E4000F0BD00BF03464089B0EB214F37DD586944
:100E50000A1402EB420210B500EBC2001C69EFF36A
:100E6000108C72B6D4E8CFEF0122BEF1000FF9D199
:100E7000C4E84E2FBEF1000FF4D1BFF35F8F42885C
:100E800089B292B28A4207D000221B69C3E88F2F31
:100E90008CF31088002010BD42F4004242800121F2
:100EA000002218699971C0E88F2F8CF310881C7884
:100EB000DA68084602F50153A140596010BD0020D0
:100EC000704700BF2DE9F04306460D4683B0EFF3AF
:100ED0000584E4B23CB12D4B5A6AAA421CD20020D0
:100EE00003B0BDE8F0832A4FD7F80C9097F8008044
:100EF000484600F063F808F1040859F828301B1A36
:100F0000301A65EB0101984271F1000110DB20BF3E
:100F10001E4B5A6AAA42E2D314BF012400249B6AE2
:100F2000B34234BF204644F0010003B0BDE8F08373
:100F300000F04CF8864265EB0101002914DB154BEB
:100F40003846CDE9003432462B46FFF717FF011E25
:100F50000ADD0E4B5A6AAA4216D39B6AB34211D3DA
:100F60000B48FFF76FFFB6E7084B5C6AAC42B6D39D
:100F7000641B18BF01249B6AB34234BF204644F06F
:100F80000100ADE7AA42EBD120BFE9E700000B402A
:100F9000F40D00204109001010B4054B054C064A21
:100FA000A04214BF1846581C5DF8044BFFF72CBA3A
:100FB0008012002000800B40443500100346416A37
:100FC0000A46986A596A8A42FAD17047034B596AAD
:100FD0000A46986A596A9142FAD1704700000B405C
:100FE00000EB400C4FEA8C0C0CF1804C0CF5803C73
:100FF000F0B51646DCF80420051FB2F5803F38BF77
:101000004FF48032EDB238BFCCF80420012D2AD93C
:101010004FF40067254C0CF54052176054F820201F
:10102000B2B9DCF80020012D82EA461202F0E0029B
:101030000CF5805632602AD94FF4006144F8203014
:101040004FF480330CF500521160CCF80430F0BD41
:101050006769B7FBF2FE0EF1010E0EEB4E0EBEF10C
:10106000030EFCD2DDE70129D2D103240CF5405256
:101070001460DCF80820D207FBD5DCF800200B4C0C
:1010800082EA461202F0E0020CF58056326001223C
:10109000DCF800504D4005F00305356002FA01F11F
:1010A000DCF808200A42FBD0C6E700BF841200200B
:1010B000014B53F8200070478412002070B4039D48
:1010C00004682D0345EA03451B4B002CB3FBF1F3E9
:1010D000B2FBF3F61FDB194A194B904214BF4FF4D1
:1010E00080424FF40042174C1A6003F580531A6097
:1010F000A36832EA0303FBD1212200F540530433F5
:10110000016086601A600268002AFCDA0822C56065
:101110001A6070BC7047036803F03F038B42DAD15A
:101120008368C3F30B03B342D5D1C36803F4EE2342
:10113000AB42D0D1EDE700BF001BB70000800540F7
:101140000020024000000240012300EB400080002C
:1011500000F1804000F5841041600360704700BFDB
:101160000023DB8A002242E800F2520201D410215F
:1011700018470421184700BF034AD2F82838002B2B
:10118000FBD0BFF35F8F704700000E400021044B7F
:10119000044ABFF35F8F43F8041B9342F9D17047B1
:1011A0000C080E402C080E4010B44FF48D704FF414
:1011B0002A64064A064B07491460D06019605368D8
:1011C000002BFCDA5DF8044B704700BF0080044040
:1011D00000A0044000B0FA00704700BF08B5014805
:1011E000FFF7FAF86835001038B5054C054DAC42EC
:1011F00004D254F8043B9847AC42FAD338BD00BF40
:10120000A0340010E034001010B40748074C084B1D
:10121000084A094904601A608B6832EA0303FBD16B
:101220005DF8044B704700BF002002407F3BEFEFAA
:1012300000300240F6FFF30300000240044BDB6C79
:10124000B3F5004F03D14FF48022024BDA647047AC
:1012500000001150002011504FF0E022044BD2F852
:10126000881D0B43C2F8883D10EE3004704700BF64
:10127000030330006FF06041044B054A1960936826
:10128000DB4333F06043FAD1704700BF00300240C7
:101290000000024010B545F25320FFF761FFBDE8A2
:1012A000104003460420184710B545F25320FFF7BD
:1012B00057FFBDE81040034601201847FFF734B937
:1012C0001449154B70B55C1AA610442E324628BF3F
:1012D0004422124D9200284602F01AF8B4F5867F97
:1012E00013D80F4AC6F1440012D02B19410803EB62
:1012F000C101C3E9002208338B42FAD1C30704D5E8
:1013000020F00100304445F82020064B9D6070BD60
:101310004320F8E70000001010010010000000203A
:101320001101001000ED00E0002370B52B4C82B0DD
:10133000C4F88430FFF738FF0122294BDA63636C6D
:10134000012BFCD10321264A244B11639C6B012CF9
:10135000FCD10226052521460523224A2248009673
:10136000FFF7ACFE21462B46204A21480095FFF7A7
:10137000A5FE0022042031461E4BFFF731FE214618
:10138000284600221C4BFFF72BFE002208201146A6
:101390001A4BFFF725FE002209201146174BFFF7D5
:1013A0001FFE002206201146134BFFF719FE0022F4
:1013B000114B07201146FFF713FE0420FFF778FEBC
:1013C00000240F4BA3FB0035AD0CE0B229460134DD
:1013D000FFF7BAFE062CF8D102B070BD0000014044
:1013E00000300140002F685900000540008C8647FE
:1013F00000800540001BB70080D1F008006CDC02C3
:1014000083DE1B4300B9704700F004B910B5094BE7
:1014100084B01C684CB1034600914FF0FF3203A921
:101420000548A047012004B010BD00F035F9204662
:1014300004B010BD841800200514001000BEFDE7A4
:1014400008B5FFF7FBFF00BF38B5064C064DFFF7A8
:10145000CBFEAC4204D254F8043B9847AC42FAD3DA
:1014600038BD00BFE0340010E834001003680846BF
:10147000114618472DE9F0411546427D074688463A
:10148000002A46D0002D1DDD0B780A2B23D0012D1C
:101490004FF0000C18D04646012416F8012F2146C3
:1014A0000A2A04F1010422D0A542F6D165450BDCDD
:1014B00008EB050313F8013CA3F10D03B3FA83F322
:1014C0005B093B75BDE8F0813B68A5EB0C0108EBBF
:1014D0000C009847ECE7037D002BD8D1036802216C
:1014E0000F489847012DE3D04FF0010CD3E716F8D1
:1014F000013C0D2BD8D08C4508EB0C00A1EB0C0166
:1015000001DA3B689847022105483B689847A446A2
:10151000CAE7294640463B68BDE8F041184700BF8E
:10152000343700102DE9F04782B00D4691461C4635
:101530000646FFF74BFD4FF0FF3C6FF000472E4A89
:10154000821841F10003944577EB03013CBF6246EA
:101550003B462A4801F09CFF6B1C804640D00CB3F0
:10156000274F284B1C68B4B1B9F1000F1CD1DFF82C
:101570009C9001E0246974B12368002BFAD0D9F85B
:1015800000300BB19C42F5D120462A463146B8477F
:101590002469002CF0D1B8F1000F26D1284602B002
:1015A000BDE8F087184FDCE74FF00A0ADFF85C90DF
:1015B00002E02469002CEED02368002BF9D0D9F882
:1015C00000300BB1A342F4D12A4631462046B84739
:1015D000012220460DF107018DF807A0B847E8E782
:1015E000304601F00BFF0546B9E7044801F040FF23
:1015F000284602B0BDE8F08740420F002C0E0020C4
:1016000075140010F01200206D14001080140020DA
:1016100000207047F0B583B006468DF80700FFF74D
:10162000D5FC4FF0FF356FF00044174A821841F1A6
:101630000003954274EB03013CBF23462A4613483E
:1016400001F026FF124B07461C689CB1114D01E0CA
:1016500024697CB12368002BFAD02B680BB19C4223
:10166000F6D1204601220DF10701FFF703FF24699F
:10167000002CEFD117B9304603B0F0BD034801F09C
:10168000F7FE304603B0F0BD40420F002C0E0020A4
:10169000F01200208014002038B5044601F0AEFEA0
:1016A000012305461A4620462946FFF73BFF084B13
:1016B0001C682CB163682BB198472469002CF9D1C0
:1016C000284638BD2469002CF4D1284638BD00BF17
:1016D000F012002070B500F0D5F80C234026194C0C
:1016E000FF22A3670E201849FEF790FF3246002123
:1016F000164801F0BFFD0125002380211348144A3C
:10170000418445700683068782604360136042F817
:10171000043C80F8213080F83B3043620D4B4FF0A1
:101720000056C360C362803B836201F0A9FE4FF4A0
:1017300080320949094B25642846E664C4F89010B4
:10174000DA6470BD000011504D03002084140020A5
:10175000840010500001105010D0010000201150E2
:1017600001210E20FEF70CBF00220248114600F0B6
:10177000A9B800BFA4140020044B197021B14FF484
:101780000032034BC3F89020704700BF511A00206D
:10179000002011500B785B0602D14B78052B00D04E
:1017A00070474B88014ADBB213607047000011504C
:1017B0008878134A00F07F035B0003EBD01302EB41
:1017C0004312D36893B10879497992F81BC083F02A
:1017D000A04340EA012183F48013118343EA8C6320
:1017E000526843F000430120136070474FF0E0233C
:1017F000D3F8F03DDB0700D500BE0020704700BFE6
:101800008414002001F03CBE8C4608B51146074800
:101810001A460CF07F034FEADC1C0CEB430C00EB88
:101820004C1000F04FF8012008BD00BF84140020C8
:1018300011F07F0205D100290CBF02200120064BC8
:101840009866C909054B01EB420003EB40104FF4C9
:101850000062002101F018BE002011508414002005
:1018600011F07F0300D17047002205485B0003EBB5
:10187000D11300EB43106FF40061C27001F004BE9D
:10188000841400204FF0805209480A4908B50A4BD9
:1018900002600A609968C94311F08051FAD14FF48F
:1018A0008052064801F0E6FC0922054B5A6708BD44
:1018B00000200240003002400000024000001050B2
:1018C0000000115000234FF0010C10B580F81AC031
:1018D0008282C3820161044601F0DEFD20B14FF433
:1018E0000032074BC3F89020204601F0C5FD10B12F
:1018F0000123237710BD2046BDE8104001F0B4BDA0
:1019000000201150002070472DE9F0414FF00008F1
:101910001C4D044642462B781B4F1C4E0DE033688D
:1019200013EB421324D0DB682046984708F10108E6
:101930002B785FFA88F2934206D39342A2EB03031B
:10194000EDD807EB4313EEE754220021104801F0D5
:1019500091FC4FF0FF330E482022041D4360C4E980
:101960000133E360FF21BDE8F041143001F082BC97
:101970004FF0E023D3F8F03DDB0700D500BEBDE813
:10198000F08100BF501A002038370010B80F002037
:10199000C0100020704700BF704700BF0020704794
:1019A0000020704700207047014B9878704700BFB7
:1019B000C01000202DE9F047DFF8E49099F80030DE
:1019C000FF2B55D10D4600293DD00021542206465B
:1019D000294801F04FFC0022284C294B20461A7060
:1019E000FEF792FF274B28481C60284CFEF79AFF11
:1019F000204601F00BFC264A264B146023B12648F2
:101A0000AFF30080254B18604FF0000A224C53467C
:101A10002278DFF89080214F0DE03A6812EB4313F3
:101A200011D05B687BB198470AF1010A22785FFA0E
:101A30008AF3934211D89342EFD39B1A08EB4313D6
:101A40005B68002BEFD14FF0E023D3F8F03DDB07CC
:101A500000D500BE0020BDE8F0872946304689F851
:101A60000060FFF737FE0028EDD03046FFF778FE24
:101A70000120BDE8F08700BFC0100020B810002092
:101A8000521A002014110020200E00200C0E0020FD
:101A90001811002000000000501A0020B80F00208C
:101AA000280E0020383700102DE9F04FDFF8ACA2E7
:101AB0008BB09AF80030FF2B00F0E880A04CA14DCD
:101AC000DFF894B2A04E27687B69EFF3108272B6FC
:101AD000D3E8CF0F01210028FAD1C3E8401F002826
:101AE000F6D1BFF35F8FBA61384607A901F0D4F988
:101AF00000237A69C2E88F3FBB6983F3108800280E
:101B000000F0C4809DF81D30013B072B00F26A8372
:101B1000DFE803F0A1AB8F9788350A04089B002B00
:101B2000D1D009989847CEE79DF8201001F07F07A3
:101B300005EB470000EBD11090F8343023F001039F
:101B400080F8343090F8343023F0040380F83430D7
:101B5000002F00F09E80027D9BF800309A4280F0BA
:101B60008D807A4B1B6813EB421300F088809F69CD
:101B70009DF82120099B9DF81C00B847A3E7337806
:101B8000002B7CD03378013BDBB23370337803F029
:101B9000FF00002B97D16B4F9DF81C903B7843F0D2
:101BA00001033B7097F8343060F3000387F834305A
:101BB00097F8343060F3820387F8343097F8353083
:101BC00060F3000387F8353097F8353060F382030F
:101BD00087F8353000F024FC9DF8203003F06002D7
:101BE000602A66D0402A76D003F01F03012B00F054
:101BF000B780022B7BD0002B5BD1202A00F0DE8146
:101C0000002A56D19DF82130092B52D8DFE813F075
:101C1000A50197015100B60151008A015F015100F1
:101C20005401E7002B78D9077FF54DAFFEF750FB45
:101C300049E7EB78DA077FF546AF0898FFF7ACFE87
:101C400041E72B78D8077FF53EAF2878C0F3C00076
:101C5000FEF73CFB37E79DF81C00FFF755FE00F050
:101C6000D5FB9DF82030AB702DE79DF81C00FFF7E9
:101C70004BFE00F0CBFBFEF727FB24E711D04FF023
:101C8000E023D3F8F03DDC0700D500BE0BB0BDE883
:101C9000F08F099B9DF821209DF81C0000F0D4FBDB
:101CA00011E72B4B63E7FEF72FFB0246002840F0BD
:101CB0007C814FF0E023D3F8F03DDF0700D500BE74
:101CC0009DF81C000021FFF7B3FD80219DF81C004A
:101CD000FFF7AEFDF7E61F4800F0A2FB01214846E2
:101CE00008AAFFF70FFE00287FF4EDAEE8E79DF8A5
:101CF000241011F0700FDCD1174B01F07F08187819
:101D000007EB480303EBD11393F814C04FEA4808DC
:101D100084454FEAD11350D340F06D810C480190B7
:101D2000002A00F06C81019F786900F079FB0121A5
:101D300048467B6908AA984700287FF4C4AEBFE7ED
:101D400018110020C0100020521A0020B80F0020E7
:101D50003837001005190010501A0020280E0020F6
:101D60009DF824300F2BABD8B04A3B441B79127836
:101D700093422ED3A4D1AE4F786900F051FB0121DC
:101D800048467B6908AA984700287FF49CAE9DF8D6
:101D9000203013F0600793D19DF821300A3B012BCE
:101DA0008ED800F03DFB9DF821300A2B00F0FB811E
:101DB000484608A900F0B8FA85E69E48006800EB9E
:101DC0004C100190002A00F01A8100283FF478AFEF
:101DD000A9E7984A176817EB4317CDD170E77B78CE
:101DE0009DF82280984500F05A817B78002B40F0C6
:101DF000C68187F80180B8F1000F00F04E8108F12C
:101E0000FF30C0B2FEF780FA0146002800F064817E
:101E10004378022B40F06081C2793878C2F34013D6
:101E20001B01C2F3801220F0300043EA4213034347
:101E30003B704B88CDF80C90CB1801930931019B76
:101E40008B4240F2AB814B780B2B00F0B6814FF008
:101E5000010C042B40F040814FF00009019BC84663
:101E60005B1A9BB20293714BCDF810C01B781BE03C
:101E7000704B1B6813EB481300F02E81029A1B690C
:101E800003980591984708280246059909F1010928
:101E900003D9029B834280F00781644B5FFA89F883
:101EA0001B784345C0F018814345A8EB0303DFD8F6
:101EB0005F4A02EB4313E1E77B7848468DF81A301E
:101EC0000DF11A02012308A900F048FAFBE5BDF85C
:101ED0002200030A013B020AC0B20E2B3FF6F0AE0D
:101EE00001A151F823F000BF09210010991F001033
:101EF00045210010C11C0010C11C0010272100103A
:101F0000991F0010C11C0010C11C0010C11C001042
:101F1000C11C0010C11C0010C11C0010C11C00100D
:101F2000FB20001008A800F081FA48469DF8221016
:101F3000FFF71AFC3B7843F002033B70C3E5BDF8A2
:101F40002230012B7FF4BCAE3B78484623F00803D7
:101F500008A93B7000F0E8F9B5E548463B789A08D7
:101F600002F00202C3F340131343ADF81A300DF12F
:101F70001A02022308A900F0F1F9A4E5BDF8223005
:101F8000012B7FF49DAE3B78484643F0080308A937
:101F90003B7000F0C9F996E5022A3FF484AEFFF7E2
:101FA00001FD024600283FF48BAE4846538808A93D
:101FB00000F0D4F900287FF486AD81E69DF8243046
:101FC0000F2B3FF67DAE194A3B441B7912789342A2
:101FD00027D2184A176817EB43173FF471AE786998
:101FE00000F01EFA012148467B6908AA984700289C
:101FF0007FF469AD64E6002A7FF462AE01929DF839
:1020000021C00CF0FD02012A16D0BCF1000F7FF4B4
:1020100050AEB844434493F834304846C3F34003C9
:10202000A3E77FF44DAE024FD9E700BF501A00205E
:1020300038370010B80F0020BDF82220BAB9BCF123
:10204000010F9AF8000000F085800293FFF7F0FB83
:10205000029BB844434493F8342042F0020283F8D0
:10206000342093F8342042F0010283F83420019B9D
:10207000002B3FF428AD586900F0D2F9019B0121F3
:102080005B6908AA48469847002000F0C9F997F80C
:102090003530DB073FF517AD8AE6FEF715F9484600
:1020A00008A900F041F90EE5DDF810C0BCF1000F01
:1020B00000F08980887800EB0C03DBB203E09842E3
:1020C0008CF804807FD007EB000C9CF804E0013012
:1020D000BEF1FF0FC0B2F2D04FF0E023D3F8F03DD5
:1020E000D90700D500BE4FF0E023D3F8F03DDA0762
:1020F00000D500BE00237B70E2E5FFF74FFC0246EF
:1021000000287FF452AFDBE5FEF7FAF8024600281C
:102110003FF4CFAD4846122308A900F01FF900286C
:102120007FF4D1ACCCE5FFF73BFC024600283FF43E
:10213000C7AD4846137808A900F010F900287FF4CD
:10214000C2ACBDE5BDF82410FEF7EEF8024600284B
:10215000EFD1B5E5CDE90232FFF782FB029BB8442F
:10216000434493F83410039A62F3410183F8341026
:1021700093F8341062F3000183F8341077E70021FC
:102180004846FFF7F9FA4846FFF73CFBBB7848465C
:102190000193FFF7B9FB019BBB702AE6DDF80C90B9
:1021A000FEF790F87BE74846012308A90DF11A02D3
:1021B0008DF81A7000F0D2F885E40B7891F803C01E
:1021C00019444B7845E643460B480492029100F0CF
:1021D000F7FD0A4B02991B78049A43451144BFF45A
:1021E0002EAE79E74FF0E023D3F8F03DDB077FF523
:1021F0006AAC00BE67E400BFD4100020501A002073
:1022000010B5194801F07F0C00EB4C0000EBD11029
:1022100090F834C01CF0010F08D04FF0E023D3F841
:10222000F03DDA0700D500BE002010BD00F13004FB
:1022300094F804C00D484CF0010C007884F804C0F8
:10224000FFF7E2FA0028F0D14FF0E021227960F3A5
:1022500000022271227960F382022271D1F8F03DEE
:10226000DB07E1D500BEDFE7C0100020280E00200C
:1022700010B50C460B4B1878FFF7F2FA0A4904F038
:102280007F0301EB430101EBD41191F8343023F0CB
:10229000020381F8343091F8343023F0010381F8DF
:1022A000343010BD280E0020C01000202DE9F04170
:1022B0008E7816F0700709D04FF0E023D3F8F03D88
:1022C000DB0700D500BE0020BDE8F081144D154BA2
:1022D0000C460846A97893F8008000F041FD0028DC
:1022E000EAD006F07F0305EB430303EBD61393F824
:1022F0003420214667F3410283F8342093F83420D8
:10230000404667F3000283F8342093F8342067F3E3
:102310008202BDE8F04183F83420FFF749BA00BFDC
:10232000C0100020280E002030B50B4C0023A6461C
:102330008C46054608684968C4E90233AEE80300E4
:102340009CF800102846BDE83040C9431A4601F009
:102350008001FFF755BF00BF401000202DE9F0417C
:10236000284F4FF00008BE468C460646086849686C
:10237000BA60AEE80300A7F80E801546BCF8062048
:10238000934228BF1346BB819AB11C4633B3DDB1DB
:1023900097F90030402C28BF4024002B29DB414610
:1023A00023463046184AFFF72BFF68B10120BDE8ED
:1023B000F0819CF800101346C943304601F08001BB
:1023C000FFF71EFF0028F1D14FF0E023D3F8F03DD6
:1023D000DB0700D500BE0020BDE8F0811A46397841
:1023E00001F0800123463046FFF70AFF0028DDD1C7
:1023F000EAE722462946044800F08AFF8021024A83
:10240000F0E700BF40100020001000200022034B26
:10241000C3E90022C3E902221A617047401000207C
:10242000014B1861704700BF4010002030B40246D5
:10243000044C0025234600685168C4E9025530BCAD
:1024400003C370474010002070B53D4CC909227885
:102450000646B1EBD21F1D4682B017D053B14FF0E4
:10246000E023D3F8F03DDB0702D4002002B070BDBA
:1024700000BEFAE72146FFF78DF923691BB122461A
:10248000032130469847012002B070BD94F9003016
:10249000002B06DBA0680028E7D02A46294900F077
:1024A00037FFE089A168E388284480B22944834249
:1024B000E081A16016D03F2D14D9A28994F9004083
:1024C000131A9BB2402B28BF4023002C27DB9042DD
:1024D0004FF0000131D01B4A3046FFF791FE002833
:1024E000D1D1BCE7236923B102213046144A984771
:1024F00060B121780023C94330461A4601F08001BB
:10250000FFF77EFE0028AAD00120BDE70146304635
:10251000FFF78EF980213046FFF78AF9B3E7904242
:1025200008D01A460748019300F0F2FE8021054AC0
:10253000019BD1E780210022CEE70A46CCE700BF0D
:102540004010002000100020012070472DE9F047C6
:102550004D4C82B062681AB31378E189134408398C
:1025600005465018DA881344C21A002A18DD0026DE
:1025700094F80CC004E01A781344C21A002A0FDD44
:102580005A78042AF7D1DF78721C002FF3D199789A
:10259000614509D0D6B21A781344C21A002AEFDC7A
:1025A000002002B0BDE8F087A36A9B5D002BF7D046
:1025B00039462846227AFDF78DFE0028F0D03348B0
:1025C00000F05AFCE38A6289002B37D0218EB3EBEE
:1025D000810F33DCB4F814C0604518D3B4F8188008
:1025E000DFF8ACE0A8EB0307BFB2C7EB510A5045D8
:1025F000DEF800904FEA510125DAB9F1000F39D128
:10260000624528BF62460A231746CEF800303A4694
:10261000216C1E4800F08AFC3B462846226C217A39
:10262000FFF7EEFD0028BBD0A36A39469E5D00226D
:10263000237A28460096FFF787FFB2E7904228BF2B
:10264000104687B2E3E7394488420CDDB9F1000F48
:1026500010D163451CBF0A23CEF80030424528BF85
:1026600042461746D3E79A42174628BF1F46B9F19C
:10267000000FCCD09A4228BF1A4609F1FF33174603
:10268000CEF80030C3E700BFBC0F0020E80F0020E9
:10269000AC120020012070470120704700207047D5
:1026A00000207047002070470020704700207047CE
:1026B0000020704710B9024B587B704700207047CC
:1026C000BC0F002028B90448436813B12C3000F037
:1026D000EBBC0020704700BFBC0F002070B5442247
:1026E00082B000210F4800F0C5FD012340200D4EAF
:1026F0000D4C0E4DB4620E4C86F824004FF4C0729F
:102700000C49356206F12C00009300F085FB204651
:10271000FEF7FAF80022084BC6E90E42336402B015
:1027200070BD00BFBC0F0020DC110020B0120020E3
:10273000F8120020001300208818002000207047A5
:1027400008B520220021054800F094FD034B03F159
:102750002C00BDE8084000F059BD00BFBC0F0020B0
:102760004B79012B01D0002070478B79012BFAD1D6
:10277000CA79202AF7D10A79012A12D811D0CA7849
:10278000002AF0D10F4A10B4546894B94FF0080CE5
:10279000516010705373A2F80EC000205DF8044B16
:1027A00070474FF0E023D3F8F03DDA07DBD500BEE9
:1027B000D9E74FF0E023D3F8F03DDB07EDD500BEBD
:1027C000EBE700BFBC0F00202DE9F04F01290546C3
:1027D000144683B005D0022918D0012003B0BDE80B
:1027E000F08F117811F060083DD153780A2B6CD02E
:1027F0000B2B00F08F80012BEFD04FF0E023D3F8AC
:10280000F03DD80700D500BE0020E7E7137803F0BD
:10281000E002202AE1D103F01F03012B00F0A38086
:10282000022BEAD18A4FA0887B68F989C0B2002BBD
:10283000EAD01A7819441344DA881344CA1A002AD1
:1028400005DCE1E71A781344CA1A002ADCDD5A785D
:10285000052AF7D19A788242F4D1214628463A6A6D
:10286000FFF71CFFBAE7B8F1200FC6D1938801F03B
:102870001F02012AD8B200F05281022ABDD1744F42
:102880007B68FE89002BBFD01A781E441344DA8877
:102890001344F21A002A05DCB6E71A781344F21A38
:1028A000002AB1DD5A78052AF7D19A788242F4D10C
:1028B000090600F1EE812146284697F824303A6A4D
:1028C00003B0BDE8F04FFFF749BD614F7E68002EB1
:1028D0009AD03378F9893344DA8808390E4413449E
:1028E000F21A002A90DDA088C0B204E01A781344DE
:1028F000F21A002A88DD5A78042AF7D1DA7808F12A
:102900000101002AF2D19A78824200F002815FFA36
:1029100081F8EBE74E4F796800293FF475AF0E78E8
:10292000FA890E44F388083A11441E448B1B002B8D
:102930007FF76AAFB4F804905FFA89F905E033785D
:102940001E448B1B002B7FF75FAF7378042BF6D1EF
:10295000F27808F10103002AF1D1B078484526D079
:102960005FFA83F8EBE7A388394FDEB21B0A786879
:1029700040F0FB80F98900283FF446AF0839002970
:102980007FF742AF0346014405E01A781344CA1AA0
:10299000002A7FF739AF5A78042AF6D18278B242FA
:1029A000F3D1214628463A6AFFF77AFE16E73B7BC9
:1029B000B4F802A04B4500F02681BB6A5FFA8AF1A9
:1029C00003F80810F8897B68083803EB0008A8EBC7
:1029D0000603002B06DC47E033781E44A8EB060311
:1029E000002B41DD7378042BF6D1B3784B45F3D13E
:1029F000F3788B42F0D196F804B0B246BBF1000FE9
:102A000005D12AE09AF8003093459A4422D9A8EBE0
:102A10000A03002B1EDD9AF80130052BF2D1514636
:102A200028460092FFF742FC009A00283FF4E5AEEA
:102A30009AF80210284601920091FFF719FC0099BC
:102A4000019ACB0940F0FA800132D2B2DAE700BF36
:102A5000BC0F002093457FF4D7AE21462846FFF7F0
:102A600019FE00283FF4D0AE3E7F012E4CD17B7F73
:102A7000002B49D0BB7F002B46D0FB7E002B43D0E0
:102A80003B69002B40D0FEF78FFF97F81B8028B1E1
:102A900008F1FF3806FA08F65FFA86F83B6903FB8F
:102AA00008F6FEF781FF002814BF4FF4FA534FF4E5
:102AB0007A73B6FBF3F6D7F81090FEF775FF797FBF
:102AC000BA7FB6B201FB02F2731C13FB02F37989E1
:102AD00000289BB214BF4FF4FA504FF47A70994219
:102AE000C0F0E98009FB08F8B8FBF0F600FB16809F
:102AF000991A89B23B83002800F0D980002361F342
:102B00000F0361F31F437B6121462846FFF70CFC4E
:102B100063E6BA6A0123214628464244D0E66F4F55
:102B20001B0AD7F804C045D1FE89BCF1000F3FF461
:102B30006BAE083E002E7FF767AE6346664405E045
:102B40001A781344F21A002A7FF75EAE5A78042AE4
:102B5000F6D19CF802208242F2D10B067FF5ABAE93
:102B600021462846FFF7A2FD38E600283FF44CAE88
:102B7000D9B28378B3427FF447AE03780344D88850
:102B80001A78861A002E7FF73FAE1844134405E0EA
:102B90001A781344C21A002A7FF736AEDA788A42CE
:102BA000F6D1BB7E3A6A8B423ED021462846FFF7DB
:102BB00079FD13E6BCF1000F3FF426AEDAB29CF8C3
:102BC000023083427FF420AE9CF800306344DE88FC
:102BD0001878A6EB000CBCF1000F7FF715AE1E4471
:102BE000034405E018780344F01A00287FF70CAE80
:102BF000D8789042F6D10A067FF55DAE2146284688
:102C0000FFF756FDEAE536483A73009200F0FEFA07
:102C100021462846FFF740FD00283FF4F5AD009A15
:102C20003A727A613A83C8E663881B0A012BBCD1E9
:102C30006378012B04BF13683B61B6E79AF8033051
:102C400013F0300F7FF400AF397287F80C90BAF8A8
:102C50000430C3F30A037B8133783344A8EB0301C8
:102C6000002906DC1AE019780B44A8EB03010029BF
:102C700014DD5978042911D02429F4D19978012937
:102C800022D00229EFD1D978012904BF1979B97767
:102C9000E9E721462846FFF707FD9FE52846009211
:102CA000FFF754FC009A00287FF4CEAEACE58A1AF8
:102CB000BA82F98228E74FF0E023D3F8F03DDE072F
:102CC0007FF522AF00BE1FE7997A79775979397776
:102CD00059782429C7D19978D3E700BFBC0F0020C9
:102CE000E80F0020044B1A7A8A4201D19B6A0BB983
:102CF00000207047FFF72ABCBC0F002010B582B03F
:102D0000C9B101280CD80B7853B1144C012B2354B2
:102D100002D0012002B010BDFEF74CFE0028F8D111
:102D20004FF0E023D3F8F03DDB0702D4002002B0DF
:102D300010BD00BEFAE70124084601A9ADF8044021
:102D4000FEF738FE38B94FF0E023D3F8F03DDA074C
:102D5000EDD500BEEBE7014B1C70E8E7B410002096
:102D6000C378828803F003000228C2F30A0215D058
:102D700003280AD001281CD1022940F2FF3308BFE2
:102D80004FF4806393420DD37047022914BF402350
:102D90004FF48063934205D30120704702290AD083
:102DA000402AF9D94FF0E023D3F8F03DDB0700D5F6
:102DB00000BE00207047B2F5007FEDD0F2E700BF03
:102DC0000A44914226D291F801C0BCF1050F05D00A
:102DD00091F800C061448A42F5D8704700B591F877
:102DE00002C00CF07F0E00EB4E0E4FEADC1C0EF81A
:102DF0000C3091F800C061448A4209D991F801C0B1
:102E0000BCF1050FEBD091F800C061448A42F5D8BF
:102E10005DF804FB704700BF2DE9F041B2F5004FAB
:102E20009DF8188024D80446C06817460E461D46F3
:102E300018B14FF0FF3100F013FB206918B14FF0CB
:102E4000FF3100F00DFB0022C5F30E03E06843EAFA
:102E5000C83362812660A780E380228108B100F038
:102E600007FB206908B100F003FB0120BDE8F081F9
:102E70000020BDE8F08100BF038942899BB292B275
:102E80008088934236BFC2EB40029B1A9B189BB2CC
:102E9000984228BF1846704738B5044600690D4669
:102EA00018B14FF0FF3100F0DBFA2189638989B254
:102EB0009BB2A288994236BFC3EB4200C81A4018A1
:102EC00080B250B3824209D291422CBF891A89182C
:102ED0008BB29A42638103D89B1A9BB29A42FBD968
:102EE000E2882168C2F30E0202FB0311284600F0BB
:102EF0000FFA6189012589B24B1C9BB29942A288C5
:102F00000ED9002302FA05F15B1A9BB22069638196
:102F100008B100F0ADFA284638BD054663899BB27A
:102F2000B3EB420F4FEA4201F0DBEDE72DE9F0474A
:102F3000064600698846914618B14FF0FF3100F00F
:102F40008FFA338974899BB2A4B2B588A34236BF85
:102F5000C4EB45071F1BFF18BFB2002F4AD0BD426C
:102F600040D3B94528BFB946A5421FFA89F703D80F
:102F7000641BA4B2A542FBD9B6F806A02B1B31688E
:102F80009BB2CAF30E029F42924602FB041123D960
:102F900013FB02F31FFA83F94A4640467D1B00F0FB
:102FA000B7F9621912FB0AF2316808EB090092B214
:102FB00000F0AEF97289B58892B2D3199BB29A42E9
:102FC0001AD96A009B1A9BB23069738108B100F06C
:102FD0004FFA3846BDE8F087404607FB02F200F0A2
:102FE00097F9E7E7AB422CBF5B1B5B199CB22F46FE
:102FF0007481B6E773899BB2B3EB450F4FEA450284
:10300000E2DBDFE7F8B50446C0680E4618B14FF0C2
:10301000FF3100F025FA2589238961899BB289B2A5
:10302000A2888B4236BFC1EB42015B1A5B189BB290
:103030009A42ADB208D8E779FF0905D1E06808B136
:1030400000F016FA3846F8BD954228BF2B4618D333
:103050009B1A9BB29342FBD2E2882068C2F30E0215
:1030600002FB0300314600F053F96B1C9BB29D42FA
:10307000A28812D9002351005B1A9BB20127238139
:10308000DCE7E2882068C2F30E0205FB020031464D
:1030900000F03EF90135A288ABB2B3EB420F4FEA24
:1030A0004201EBDBE8E700BF2DE9F04F174683B0A4
:1030B000002A75D00646C068894618B14FF0FF3126
:1030C00000F0CEF9F379B6F808807289DB09B5888B
:1030D0001FFA88F892B23DD1904536BFC2EB450247
:1030E000A8EB0202424492B2AA425ED2AA1A92B25B
:1030F000BA4228BF3A4697B2A7EB050B08EB070A7E
:10310000F3881FFA8BFB1FFA8AFAA845444603D3BB
:10311000641BA4B2AC42FBD22D1B3068ADB2C3F32A
:103120000E02BD4202FB04005AD3494607FB02F2DD
:1031300000F0EEF8B288D0454FEA420302D8BAEB6D
:10314000420F03DBAAEB03031FFA83FA3D46A6F8FE
:1031500008A02BE0AF4232D2904536BFC2EB450308
:10316000A8EB020343449BB269003B44A7EB050B69
:103170008B421FFA8BFB0DDB02EB050A1FFA8AFA62
:10318000AAEB07081FFA88F842453CD9A8EB0101D1
:103190001FFA81F807EB080A1FFA8AFAF388B4E7E6
:1031A0001546284603B0BDE8F08F0025F0680028DA
:1031B000F7D000F05DF9284603B0BDE8F08F002D90
:1031C000F4D0F3887F1B02EB050A9046C3F30E028E
:1031D00002FB07994FF0000B2F461FFA8AFA94E77B
:1031E00015FB02F5ADB2494601922A4600F090F86F
:1031F000019B5C4414FB03F4306809EB0501A2B2A7
:1032000000F086F896E74145C0DDC7E710B50446F3
:10321000C06818B14FF0FF3100F022F9206918B1F1
:103220004FF0FF3100F01CF90023E0686381238137
:1032300008B100F01DF9206908B100F019F901206A
:1032400010BD00BF00B545F247308BB0FDF788FFD9
:1032500001220346092101A89847DDE90332044908
:1032600012BA1BBAC1E900230BB05DF804FB00BF22
:1032700084190020830730B546D08418844604E0C2
:1032800003F8011B9D0704D09C46A4456346F7D173
:1032900030BD013A0244A2EB0C02032A29D9CCB278
:1032A0000F2A04EB042404EB04442FD9A2F1100CE0
:1032B00003F110052CF00F0CAC44C3E90044C3E942
:1032C000024410336345F8D112F00C0F02F00F0ED8
:1032D00018D02EF0030CAEF104051A469C4442F8B7
:1032E000044B6245FBD125F0030404330EF00302C6
:1032F0002344002ACCD0C9B21A4403F8011B9342DC
:10330000FBD130BD7246F4E70346C6E79646E0E7D8
:10331000844641EA000313F0030349D1403A23D322
:103320000B6803604B6843608B688360CB68C36045
:103330000B6903614B6943618B698361CB69C3612D
:103340000B6A03624B6A43628B6A8362CB6AC36215
:103350000B6B03634B6B43638B6B8363CB6BC363FD
:1033600040304031403ADBD230320BD30B6803603F
:103370004B6843608B688360CB68C360103010314A
:10338000103AF3D20C3205D351F8043B40F8043B19
:10339000043AF9D2043208D0D2071CBF11F8013B1D
:1033A00000F8013B01D30B8803806046704700BFE3
:1033B000082A13D38B07B1D010F00303AED0C3F1AA
:1033C0000403D21ADB071CBF11F8013B00F8013BD4
:1033D000A4D331F8023B20F8023B9FE7043AD9D34B
:1033E000013A11F8013B00F8013BF9D20B78037068
:1033F0004B7843708B7883706046704720F00301F0
:1034000010F00300C0F1000051F8043B00F1040C7F
:103410004FEACC0C6FF000021CBF22FA0CF21343EF
:103420004FF0010C4CEA0C2C4CEA0C4CA3EB0C02B8
:1034300022EA030212EACC1204BF51F8043B043022
:10344000F4D0C2F1000102EA0102B2FA82F2C2F142
:103450001F0200EBD2007047F8B500BF000000006B
:103460005FF800F0E50100205FF800F0B90A0020E5
:103470005FF800F01D0200205FF800F0410A002014
:103480005FF800F0590200205FF800F0750A002094
:103490005FF800F07D0100205FF800F0190A0020BD
:1034A00095120010091200103D120010291300108F
:1034B000751200108D110010BD120010791100104E
:1034C000BD080010C11200107D0C0010D9110010B1
:1034D000A912001059120010190500104105001022
:0834E00045320010110200103A
:1034E80068657436380000005069636F2036636879
:1034F800204D6963726F70686F6E652034386B2F6A
:103508003234000031323334353600000A2A2A2A90
:103518002050414E4943202A2A2A0A000A00000066
:103528004E6F207370696E6C6F636B732061726588
:1035380020617661696C61626C6500004861726443
:103548007761726520616C61726D20256420616C01
:10355800726561647920636C61696D65640000005F
:1035680048617264206173736572740052656C659A
:1035780061736500626F6F74325F7732357130380E
:1035880030000000322E322E300000007069636F68
:10359800320000007069636F5F366D69635F736F37
:1035A800756E6463617264004F6374202033203247
:1035B80030323500556E68616E646C65642049521E
:1035C8005120307825780A0065702025303258203F
:1035D80077617320616C72656164792061766169D5
:1035E8006C61626C6500000043616E277420636F34
:1035F8006E74696E75652078666572206F6E2069D5
:103608006E616374697665206570202530325800D4
:103618004C4544002C360010E8340010F0340010FB
:103628000C350010090400001201000200000040DF
:10363800FECA664000010102030100000902000001
:103648000201008032090400000001012000092461
:103658000100025000010108240A010307000011BB
:103668002402020102000106000000000000000020
:1036780022240603020300000000000000000000EE
:103688000000000000000000000000000000000032
:1036980000000C24030401010003010000000904D8
:1036A80001000001022000090401010101022000BB
:1036B80010240104000101000000060000000000C1
:1036C8000624020103180705810560030108250186
:1036D800000000000000000006005250D3F07542C0
:1036E8007435001006005250E182887F7C35001046
:1036F80006005250ABB360538C3500100600525090
:10370800BBFF3CB69435001006005250861C0302DD
:103718009C350010060052505422A29DB03500106E
:1037280005005250DE65F468C44400100D0A00001C
:1037380000000000DD2600103D2700104127001082
:1037480061270010C9270010E52C0010710D00201A
:0C3758000900525000000002183600105A
:08376400ACFBFF7F0100000037
:10376C00E0360010EC360010F8360010043700106C
:10377C00103700101C370010283700105837001075
:10378C004FF050412DE9F0410027044616461D46E6
:10379C00D1F8008008E0C1E88F7F8CF310883046A8
:1037AC00294600F031FEE8B92168EFF3108C72B6AF
:1037BC00D1E8CF2F0123002AFAD1C1E8423F002AD9
:1037CC00F6D1BFF35F8F94F904302168002BE2DA55
:1037DC00002384F80480C1E88F3F8CF3108801200B
:1037EC00BDE8F0810020BDE8F08100BF30B5046871
:1037FC00EFF3108C72B6D4E8CFEF0125BEF1000FB9
:10380C00F9D1C4E84E5FBEF1000FF4D1BFF35F8F66
:10381C0090F904400568002C10DB0021C5E88F1FCF
:10382C008CF310884FF0504595F90050A54201D10A
:10383C00084630BDBDE83040FFF7A2BF4FF0504204
:10384C00126800230271C5E88F3F8CF310880120A9
:10385C0030BD00BF70B505460C4600F0C9FD0246F0
:10386C000B464FF47A704FF0FF3E6FF0004CE4FBC8
:10387C00002396457CEB030138BF72462846BDE811
:10388C00704038BF6346FFF77BBF00BF0368EFF3A0
:10389C00108272B6D3E8CFCF0121BCF1000FF9D161
:1038AC00C3E84C1FBCF1000FF4D1BFF35F8F4FF096
:1038BC00FF0C0023016880F804C0C1E88F3F82F33D
:1038CC00108840BF704700BF002108B5134B4FF460
:1038DC00707299601248D960196159619961D96106
:1038EC00196259629962D962196359639963D963F0
:1038FC00196459649964D964196559659965D965D0
:10390C00196659669966D966196759679967D967AF
:10391C0000F07EFD034B044A1A6008BD00001050F5
:10392C00C414002048190020800110502DE9F04FDC
:10393C001F4B85B0D3F858A0BAF1000F22D0002449
:10394C0001254FF4E069DFF870801A4F01E0202C5C
:10395C0018D00AEA0502611C2346AB46CCB26D00B6
:10396C00002AF4D004F0010203F0FE06164407EB23
:10397C0046163046C8F858B000F008FC28B93AEAA8
:10398C000B0AE4D105B0BDE8F08F00238DF80930A7
:10399C00B37801A88DF80830F38A0121ADF80490B2
:1039AC00039300F011FC304600F096FBE7E700BFF4
:1039BC00000011508414002000301150F0B5BB4BA6
:1039CC0085B0D3F8985015F4003674D0B84BB94C78
:1039DC00996A94F83B30B84A022B116000F0D480FD
:1039EC00002694F87B30022B00F03B8194F8BB301E
:1039FC00022B00F07D8194F8FB30022B00F06C81DF
:103A0C0094F83B31022B00F0448194F87B31022B6B
:103A1C0000F0338194F8BB31022B00F0B68194F89E
:103A2C00FB31022B00F0A68194F83B32022B00F004
:103A3C00968194F87B32022B00F0868194F8BB328D
:103A4C00022B00F0768194F8FB32022B00F0668199
:103A5C0094F83B33022B00F0568194F87B33022B05
:103A6C0000F0A48094F8BB33022B00F0998194F8F9
:103A7C00FB33022B00F0B4803EB9904B1B7823B97A
:103A8C004FF400328E4BC3F890204FF44072874BAA
:103A9C0001219B6C01A8C3F30A03ADF80420029327
:103AAC0000F092FBEA064FF40036864C07D5FFF780
:103ABC003DFF264603E0EA064FF01004F7D4EB0373
:103ACC0022D57C4C46F48036A37E002B40F09980A6
:103ADC00012394F83A20E370002A40F0AD800123D2
:103AEC004FF4C061784A84F82330ADF8041092E8A2
:103AFC00030004AA02E90300194601A800F064FBC4
:103B0C004FF400326E4B1A65E90408D46A041DD4D4
:103B1C002B042AD4AE4240F0C58105B0F0BD002480
:103B2C00624B46F480561C60FFF7CEFE4FF4807358
:103B3C00012101A8ADF804308DF8084000F044FBD9
:103B4C004FF400225E4B1A656A04E1D54FF4806392
:103B5C00012101A8ADF8043000F036FB1022584BBF
:103B6C0046F480461A652B04D4D54FF4A06301218A
:103B7C0001A8ADF8043000F027FB4FF40062504B65
:103B8C0046F400461A65C5E794F83A60002E3FF4F7
:103B9C0028AF94F83C30002B3FF423AF002304F102
:103BAC00200084F83C3000F0BFFA1AE794F87A73DE
:103BBC00002F3FF457AF94F87C33002B40F0648116
:103BCC0094F8BB33022B40F0F48094F8BA33002BFA
:103BDC0040F0EB8094F8FB33022B7FF456AF3E465B
:103BEC0094F8FA33002B3FF447AF94F8FC33002BD6
:103BFC003FF44BAF0023354884F8FC3300F094FAC3
:103C0C0043E70221324B294A1966536E9F07FCD5B4
:103C1C004FF440520021274800F064FA254800F088
:103C2C005BFA0222264B5A661A66012394F83A2054
:103C3C00E370002A3FF453AF254A1366A2F50052F5
:103C4C00536ED807FCD54FF440520021214800F0A8
:103C5C0049FA204800F040FA0122194B5A661A66BC
:103C6C003DE794F87A70002F3FF4C0AE94F87C30A6
:103C7C00002B40F001813E46B8E694F87A71002F93
:103C8C003FF4C8AE94F87C31002B40F0ED803E46FA
:103C9C00C0E694F83A71002F3FF4B7AE94F83C317B
:103CAC00002B40F0D9803E46AFE600BF000011501B
:103CBC0000000B4084140020F4120020511A002044
:103CCC000030115010000200000010506418002049
:103CDC0000201150A414002094F8FA70002F3FF427
:103CEC008FAE94F8FC30002B40F08E803E4687E679
:103CFC0094F8BA70002F3FF47EAE94F8BC30002BD1
:103D0C007AD13E4677E694F83A73002F3FF4A5AE8D
:103D1C0094F83C33002B57D13E469EE694F8FA7249
:103D2C00002F3FF495AE94F8FC32002B5CD13E464C
:103D3C008EE694F8BA72002F3FF485AE94F8BC323C
:103D4C00002B49D13E467EE694F87A72002F3FF460
:103D5C0075AE94F87C32002B76D13E466EE694F824
:103D6C003A72002F3FF465AE94F83C32002B63D1CD
:103D7C003E465EE694F8FA71002F3FF455AE94F887
:103D8C00FC31002B50D13E464EE694F8BA71002F10
:103D9C003FF445AE94F8BC31002B3DD13E463EE697
:103DAC0094F8BA33002B3FF462AE94F8BC33002B7A
:103DBC0071D194F8FB33022B7FF467AE94F8FA338D
:103DCC00002B3FF462AE10E70023394884F83C33F3
:103DDC003E4600F0A9F940E60023364884F8BC3290
:103DEC003E4600F0A1F92EE60023334884F8FC325D
:103DFC003E4600F099F92BE60023304884F8BC309D
:103E0C003E4600F091F9F6E500232D4884F8FC308D
:103E1C003E4600F089F9F3E500232A4884F8BC31CA
:103E2C003E4600F081F9FAE50023274884F8FC317E
:103E3C003E4600F079F9F7E50023244884F83C323B
:103E4C003E4600F071F9F4E50023214884F87C32F9
:103E5C003E4600F069F9F1E500231E4884F83C3138
:103E6C003E4600F061F9D0E500231B4884F87C3114
:103E7C003E4600F059F9CDE50023184884F87C3013
:103E8C003E4600F051F9B1E50023154884F87C3327
:103E9C0000F04AF994E60023124884F8BC3300F091
:103EAC0043F986E7104886EA050100F0A5FA00BF41
:103EBC00A4170020241700206417002024150020CC
:103ECC00641500202416002064160020A41600207F
:103EDC00E4160020A4150020E4150020E4140020B2
:103EEC00E417002024180020BC3500102DE9F04701
:103EFC00828A048B03469442C07828BF1446061E5F
:103F0C0018BF012680F00100121B5D78D87092B2A8
:103F1C0044F480609A8240EA4630A5BBD3E903653D
:103F2C0004F1FF3806EB81174CB3B8F1050F31D90A
:103F3C007E1B013E022EBC462A462BD94FEA940921
:103F4C004FEA890A05EB890652F804EBB2424CF8A9
:103F5C0004EBF9D15445A8EB0A0607EB0A0C0CD07C
:103F6C0015F8295007F829503EB15578012E8CF8D8
:103F7C00015002D092788CF802201D699A8A25444F
:103F8C001D6140F400400AB940F4804001B10004C6
:103F9C00BDE8F0877A1E2F1915F8016BBD4202F8A7
:103FAC00016FF9D1E9E700BF83680246186801B1D7
:103FBC00000C5378C0F30900002B3CD02DE9F041E4
:103FCC00D2E90334461E03EB811E40B3052E3BD9C8
:103FDC0089014D1C1D44651B022DA44634D9734622
:103FEC0000F47F774FEA9008FD1853F8041BAB429E
:103FFC004CF8041BF9D1B842A6EB070604EB0703F7
:10400C000EEB07010AD01EF8285004F828502EB1E8
:10401C004C78012E5C7001D0897899701469D38A20
:10402C0004440344D382138B1461834284BF002362
:10403C009382BDE8F081D38A0344D382138B8342ED
:10404C0084BF002393827047013C0EEB00011EF8E5
:10405C00013B8E4504F8013FF9D1DFE710B504466A
:10406C00836800211B68FFF79FFF63681B685B0078
:10407C0002D5238B834200D010BD2046BDE81040F2
:10408C000121FFF791BF00BF084B1B6C13F002031B
:10409C0002D18278D20901D100207047C07EA0F1F4
:1040AC000200B0FA80F04009704700BF00001150C8
:1040BC0008B5FFF7E9FF50B1054A064B906A1B683B
:1040CC00A0F54870C01AC6288CBF0020012008BD7E
:1040DC0000000B40F41200200023C0E90433837667
:1040EC00704700BF10B5836809B11C68214082B1CC
:1040FC00114352050DD51A6854050CD4084A21F405
:10410C0080641C60126C920703D40C23033BFDD219
:10411C008368196010BD8178024800F06DF900BF0A
:10412C0000001150D035001030B54368002183B029
:10413C0004461D68FFF7DAFE134B40F48052196CED
:10414C00A37889070ED55B060ED025F0A04545F067
:10415C0000550021204663681D6003B0BDE8304067
:10416C00FFF7C0BFDB09F0D0A38A002BEDD00121F3
:10417C0020460192FFF7BAFE019A25F00055024342
:10418C0045F0A045E5E700BF0000115038B5857E2D
:10419C00044695B1FFF762FFA38A0BB9284638BDD8
:1041AC002046FFF785FF20B1012323770025284601
:1041BC0038BD2046FFF7B8FFF8E78178014800F0DA
:1041CC001BF900BFF03500102DE9F043437804468D
:1041DC00023B0D4685B0042B13D8DFE803F00348EF
:1041EC00677042000021784B1A7822F001021A7095
:1041FC001A7822F002021A7059701A7861F382024E
:10420C001A70724B1E687369EFF3108272B6D3E8A2
:10421C00CF0F01210028FAD1C3E8401F0028F6D1A6
:10422C00BFF35F8FB2612146304600F0DDF800230A
:10423C007269C2E88F3FB36983F3108848B94FF0B5
:10424C00E023D3F8F03DDB0708D500BE05B0BDE890
:10425C00F0832A466178207800F0D2F805B0BDE8EA
:10426C00F0835B4A13780133DBB21370C9E74FF06C
:10427C000009584E4B463178DFF86081564F0FE0FD
:10428C003A6812EB431305D0DB691BB161682078E7
:10429C009847317809F101095FFA89F38B4217D8F5
:1042AC009942EDD85B1A08EB4313EDE7464B1A78AD
:1042BC00D707D3D51A7842F004021A70A1E7424B03
:1042CC001A78D607CAD51A7822F004021A7098E721
:1042DC003D4E3378580737D4F378DA07BED503232D
:1042EC0000273A4A2178166862688DF804108DF818
:1042FC0005307369CDF80670CDF80A70ADF80E7004
:10430C000292EFF3108272B6D3E8CF0F012100288E
:10431C00FAD1C3E8401F0028F6D1BFF35F8F3046B7
:10432C00B26101A900F060F87369C3E88F7FB369CB
:10433C0083F31088002882D02A469DF805109DF83A
:10434C00040000F05DF889E733784FF0000823F0A3
:10435C000403337005231D4A8DF805301768227845
:10436C00ADF80E808DF804207B69CDF80680CDF871
:10437C000A80EFF3108272B6D3E8CF0F0121002828
:10438C00FAD1C3E8401F0028F6D1BFF35F8F38463F
:10439C00BA6101A900F028F87B69C3E88F8FBB696B
:1043AC0083F3108838B94FF0E023D3F8F03DD907E8
:1043BC0092D500BE90E72A469DF805109DF80400A2
:1043CC0000F01EF888E700BFC01000201811002074
:1043DC00521A0020501A0020B80F00203837001055
:1043EC00704700BF000000005FF800F005300010BF
:1043FC005FF800F0CD0F00105FF800F0D90300104B
:10440C005FF800F0951900105FF800F0C50E001071
:10441C005FF800F075320010100000000000000082
:10442C00000001000000000000000000000002007D
:10443C00000000000000000000000300000000006D
:10444C00000000000000FF000000000001B54868FB
:10445C0001318E460047704609380149884701BD35
:10446C00F507001000000000000000000000000034
:10447C000000000000000000380E00201C1100207D
:10448C0010000C0000000000000000000000000004
:10449C000000000000000000FF0000000000000011
:0444AC00000000000C
:1044B000D3DEFFFFFE010000FF01000088BCFFFF0C
:0444C000793512AB8D
:040000051000014D99
:00000001FF
